:020000040800F2
:100000000050002095300008A92E0008B12E0008ED
:10001000B92E0008C12E0008C92E000800000000FB
:10002000000000000000000000000000D12E0008C9
:10003000DD2E000800000000E92E0008F52E000863
:10004000DD300008DD300008DD300008DD3000085C
:10005000DD300008DD300008DD300008DD3000084C
:10006000DD300008DD300008DD300008DD3000083C
:10007000DD300008DD300008DD300008DD3000082C
:10008000DD300008DD300008DD300008DD3000081C
:10009000DD300008DD300008DD300008DD3000080C
:1000A000DD300008DD300008DD300008DD300008FC
:1000B000DD300008012F0008DD300008DD300008C9
:1000C000DD300008DD300008DD300008DD300008DC
:1000D000DD300008192F000809300008DD30000865
:1000E000DD300008DD300008DD30000800000000D1
:1000F0000000000000000000000000000000000000
:0C01000000000000000000005FF808F1A3
:1001100010B5054C237833B9044B13B10448AFF341
:1001200000800123237010BD680000200000000043
:10013000807C000808B5034B1BB103490348AFF3AB
:10014000008008BD000000006C000020807C0008DA
:1001500081F0004102E000BF83F0004330B54FEA78
:1001600041044FEA430594EA050F08BF90EA020FE5
:100170001FBF54EA000C55EA020C7FEA645C7FEA78
:10018000655C00F0E2804FEA5454D4EB5555B8BF9B
:100190006D420CDD2C4480EA020281EA030382EA0C
:1001A000000083EA010180EA020281EA0303362D9E
:1001B00088BF30BD11F0004F4FEA01314FF4801C71
:1001C0004CEA113102D0404261EB410113F0004F83
:1001D0004FEA03334CEA133302D0524263EB43033A
:1001E00094EA050F00F0A780A4F10104D5F1200ED8
:1001F0000DDB02FA0EFC22FA05F2801841F1000133
:1002000003FA0EF2801843FA05F359410EE0A5F106
:1002100020050EF1200E012A03FA0EFC28BF4CF037
:10022000020C43FA05F3C01851EBE37101F00045ED
:1002300007D54FF0000EDCF1000C7EEB00006EEBFA
:100240000101B1F5801F1BD3B1F5001F0CD3490884
:100250005FEA30004FEA3C0C04F101044FEA4452DB
:1002600012F5800F80F09A80BCF1004F08BF5FEA62
:10027000500C50F1000041EB045141EA050130BD42
:100280005FEA4C0C404141EB0101013C28BFB1F554
:10029000801FE9D291F0000F04BF01460020B1FA9F
:1002A00081F308BF2033A3F10B03B3F120020CDA72
:1002B0000C3208DD02F1140CC2F10C0201FA0CF050
:1002C00021FA02F10CE002F11402D8BFC2F1200CB5
:1002D00001FA02F120FA0CFCDCBF41EA0C0190406B
:1002E000E41AA2BF01EB0451294330BD6FEA0404B4
:1002F0001F3C1CDA0C340EDC04F11404C4F120029F
:1003000020FA04F001FA02F340EA030021FA04F3B0
:1003100045EA030130BDC4F10C04C4F1200220FA07
:1003200002F001FA04F340EA0300294630BD21FA45
:1003300004F0294630BD94F0000F83F4801306BF0B
:1003400081F480110134013D4EE77FEA645C18BFFF
:100350007FEA655C29D094EA050F08BF90EA020F96
:1003600005D054EA000C04BF1946104630BD91EA8E
:10037000030F1EBF0021002030BD5FEA545C05D191
:100380004000494128BF41F0004130BD14F58004D0
:100390003CBF01F5801130BD01F0004545F0FE4144
:1003A00041F470014FF0000030BD7FEA645C1ABF79
:1003B000194610467FEA655C1CBF0B46024650EAB0
:1003C000013406BF52EA033591EA030F41F40021DC
:1003D00030BD00BF90F0000F04BF0021704730B562
:1003E0004FF4806404F132044FF000054FF0000137
:1003F00050E700BF90F0000F04BF0021704730B5F8
:100400004FF4806404F1320410F0004548BF4042CC
:100410004FF000013EE700BF42004FEAE2014FEA21
:1004200031014FEA02701FBF12F07F4393F07F4FFC
:1004300081F06051704732F07F4208BF704793F0FF
:100440007F4F04BF41F40021704730B54FF4607412
:1004500001F0004521F000411CE700BF50EA010215
:1004600008BF704730B54FF000050AE050EA0102BE
:1004700008BF704730B511F0004502D5404261EB2E
:1004800041014FF4806404F132045FEA915C3FF46F
:10049000D8AE4FF003025FEADC0C18BF03325FEA0C
:1004A000DC0C18BF033202EBDC02C2F1200300FABD
:1004B00003FC20FA02F001FA03FE40EA0E0021FAE2
:1004C00002F11444BDE600BF70B54FF0FF0C4CF4D0
:1004D000E06C1CEA11541DBF1CEA135594EA0C0F82
:1004E00095EA0C0F00F0DEF82C4481EA030621EABD
:1004F0004C5123EA4C5350EA013518BF52EA0335F8
:1005000041F4801143F4801338D0A0FB02CE4FF0A9
:100510000005E1FB02E506F00042E0FB03E54FF0D9
:100520000006E1FB03569CF0000F18BF4EF0010ED1
:10053000A4F1FF04B6F5007F64F5407404D25FEACD
:100540004E0E6D4146EB060642EAC62141EA555180
:100550004FEAC52040EA5E504FEACE2EB4F1FD0CC2
:1005600088BFBCF5E06F1ED8BEF1004F08BF5FEA40
:10057000500E50F1000041EB045170BD06F00046F2
:1005800046EA010140EA020081EA0301B4EB5C049F
:10059000C2BFD4EB0C0541EA045170BD41F4801197
:1005A0004FF0000E013C00F3AB8014F1360FDEBFBC
:1005B000002001F0004170BDC4F10004203C35DA98
:1005C0000C341BDC04F11404C4F1200500FA05F31B
:1005D00020FA04F001FA05F240EA020001F00042BC
:1005E00021F0004110EBD37021FA04F642EB060132
:1005F0005EEA430E08BF20EAD37070BDC4F10C045C
:10060000C4F1200500FA04F320FA05F001FA04F21F
:1006100040EA020001F0004110EBD37041F100010B
:100620005EEA430E08BF20EAD37070BDC4F1200516
:1006300000FA05F24EEA020E20FA04F301FA05F27E
:1006400043EA020321FA04F001F0004121FA04F226
:1006500020EA020000EBD3705EEA430E08BF20EAF6
:10066000D37070BD94F0000F0FD101F00046400030
:1006700041EB010111F4801F08BF013CF7D041EAB2
:10068000060195F0000F18BF704703F000465200B6
:1006900043EB030313F4801F08BF013DF7D043EA87
:1006A0000603704794EA0C0F0CEA135518BF95EA3D
:1006B0000C0F0CD050EA410618BF52EA4306D1D1C4
:1006C00081EA030101F000414FF0000070BD50EAE3
:1006D000410606BF1046194652EA430619D094EA6D
:1006E0000C0F02D150EA013613D195EA0C0F05D157
:1006F00052EA03361CBF104619460AD181EA0301AB
:1007000001F0004141F0FE4141F470014FF0000062
:1007100070BD41F0FE4141F4780170BD70B54FF0FD
:10072000FF0C4CF4E06C1CEA11541DBF1CEA13557D
:1007300094EA0C0F95EA0C0F00F0A7F8A4EB05045F
:1007400081EA030E52EA03354FEA013100F0888056
:100750004FEA03334FF0805545EA131343EA12631F
:100760004FEA022245EA111545EA10654FEA0026D4
:100770000EF000419D4208BF964244F1FD0404F58D
:10078000407402D25B084FEA3202B61A65EB0305E9
:100790005B084FEA32024FF480104FF4002CB6EBA6
:1007A000020E75EB030E22BFB61A754640EA0C0026
:1007B0005B084FEA3202B6EB020E75EB030E22BF66
:1007C000B61A754640EA5C005B084FEA3202B6EBA7
:1007D000020E75EB030E22BFB61A754640EA9C0066
:1007E0005B084FEA3202B6EB020E75EB030E22BF36
:1007F000B61A754640EADC0055EA060E18D04FEAF4
:10080000051545EA16754FEA06164FEAC30343EA93
:1008100052734FEAC2025FEA1C1CC0D111F4801F60
:100820000BD141EA00014FF000004FF0004CB6E759
:1008300011F4801F04BF01430020B4F1FD0C88BFF8
:10084000BCF5E06F3FF6AFAEB5EB030C04BFB6EB03
:10085000020C5FEA500C50F1000041EB045170BDF6
:100860000EF0004E4EEA113114EB5C04C2BFD4EB23
:100870000C0541EA045170BD41F480114FF0000EA7
:10088000013C90E645EA060E8DE60CEA135594EA23
:100890000C0F08BF95EA0C0F3FF43BAF94EA0C0F26
:1008A0000AD150EA01347FF434AF95EA0C0F7FF49B
:1008B00025AF104619462CE795EA0C0F06D152EAEF
:1008C00003353FF4FDAE1046194622E750EA4106D3
:1008D00018BF52EA43067FF4C5AE50EA41047FF4E4
:1008E0000DAF52EA43057FF4EBAE12E74FF0FF3C49
:1008F00006E000BF4FF0010C02E000BF4FF0010C1A
:100900004DF804CD4FEA410C7FEA6C5C4FEA430C92
:1009100018BF7FEA6C5C1BD001B050EA410C0CBFE1
:1009200052EA430C91EA030F02BF90EA020F002043
:10093000704710F1000F91EA030F58BF994208BFAA
:1009400090422CBFD8176FEAE37040F00100704767
:100950004FEA410C7FEA6C5C02D150EA013C07D1BE
:100960004FEA430C7FEA6C5CD6D152EA033CD3D009
:100970005DF8040B704700BF8446104662468C4603
:100980001946634600E000BF01B5FFF7B7FF002836
:1009900048BF10F1000F01BD4DF808EDFFF7F4FF5F
:1009A0000CBF012000205DF808FB00BF4DF808EDEA
:1009B000FFF7EAFF34BF012000205DF808FB00BF0D
:1009C0004DF808EDFFF7E0FF94BF012000205DF82F
:1009D00008FB00BF4DF808EDFFF7CEFF94BF0120E4
:1009E00000205DF808FB00BF4DF808EDFFF7C4FFDD
:1009F00034BF012000205DF808FB00BF4FEA410C26
:100A00007FEA6C5C02D150EA013C0AD14FEA430C08
:100A10007FEA6C5C02D152EA033C02D14FF0000045
:100A200070474FF0010070474FEA4102B2F1E043D6
:100A300024BFB3F5001CDCF1FE5C0DD901F0004CC5
:100A40004FEAC0024CEA5070B2F1004F40EB830015
:100A500008BF20F00100704711F0804F21D113F141
:100A60003872BCBF01F00040704741F480114FEA7A
:100A70005252C2F11802C2F1200C10FA0CF320FA03
:100A800002F018BF40F001004FEAC1234FEAD32320
:100A900003FA0CFC40EA0C0023FA02F34FEA43038A
:100AA000CCE77FEA625307D150EA01331EBF4FF013
:100AB000FE4040F44000704701F0004040F0FE402E
:100AC00040F40000704700BF80F0004002E000BF2B
:100AD00081F0004142001FBF5FEA410392EA030F29
:100AE0007FEA226C7FEA236C6AD04FEA1262D2EB73
:100AF0001363C1BFD218414048404140B8BF5B4278
:100B0000192B88BF704710F0004F40F4000020F010
:100B10007F4018BF404211F0004F41F4000121F026
:100B20007F4118BF494292EA030F3FD0A2F1010270
:100B300041FA03FC10EB0C00C3F1200301FA03F1AE
:100B400000F0004302D5494260EB4000B0F5000FD1
:100B500013D3B0F1807F06D340084FEA310102F190
:100B60000102FE2A51D2B1F1004F40EBC25008BF42
:100B700020F0010040EA03007047490040EB00000C
:100B8000013A28BFB0F5000FEDD2B0FA80FCACF10D
:100B9000080CB2EB0C0200FA0CF0AABF00EBC2503A
:100BA00052421843BCBFD0401843704792F0000F28
:100BB00081F4000106BF80F400000132013BB5E77B
:100BC0004FEA41037FEA226C18BF7FEA236C21D0F1
:100BD00092EA030F04D092F0000F08BF0846704756
:100BE00090EA010F1CBF0020704712F07F4F04D124
:100BF000400028BF40F00040704712F100723CBF37
:100C000000F50000704700F0004343F0FE4040F460
:100C1000000070477FEA226216BF08467FEA23631E
:100C20000146420206BF5FEA412390EA010F40F409
:100C3000800070474FF0000304E000BF10F0004355
:100C400048BF40425FEA000C08BF704743F096433C
:100C500001464FF000001CE050EA010208BF704757
:100C60004FF000030AE000BF50EA010208BF7047DE
:100C700011F0004302D5404261EB41015FEA010CF3
:100C800002BF84460146002043F0B64308BFA3F1EB
:100C90008053A3F50003BCFA8CF2083AA3EBC253CD
:100CA00010DB01FA02FC634400FA02FCC2F12002EC
:100CB000BCF1004F20FA02F243EB020008BF20F023
:100CC0000100704702F1200201FA02FCC2F1200289
:100CD00050EA4C0021FA02F243EB020008BF20EA7E
:100CE000DC7070474FF0FF0C1CEAD0521EBF1CEAAC
:100CF000D15392EA0C0F93EA0C0F6FD01A4480EA9A
:100D0000010C400218BF5FEA41211ED04FF0006382
:100D100043EA501043EA5111A0FB01310CF00040AE
:100D2000B1F5000F3EBF490041EAD3715B0040EAD4
:100D3000010062F17F02FD2A1DD8B3F1004F40EBA4
:100D4000C25008BF20F00100704790F0000F0CF077
:100D5000004C08BF49024CEA502040EA51207F3A3B
:100D6000C2BFD2F1FF0340EAC250704740F4000016
:100D70004FF00003013A5DDC12F1190FDCBF00F007
:100D800000407047C2F10002410021FA02F1C2F1B5
:100D9000200200FA02FC5FEA310040F1000053EA51
:100DA0004C0308BF20EADC70704792F0000F00F09F
:100DB000004C02BF400010F4000F013AF9D040EAA5
:100DC0000C0093F0000F01F0004C02BF490011F439
:100DD000000F013BF9D041EA0C018FE70CEAD15337
:100DE00092EA0C0F18BF93EA0C0F0AD030F0004CB7
:100DF00018BF31F0004CD8D180EA010000F000406B
:100E0000704790F0000F17BF90F0004F084691F028
:100E1000000F91F0004F14D092EA0C0F01D1420262
:100E20000FD193EA0C0F03D14B0218BF084608D12B
:100E300080EA010000F0004040F0FE4040F4000075
:100E4000704740F0FE4040F4400070474FF0FF0C08
:100E50001CEAD0521EBF1CEAD15392EA0C0F93EA4F
:100E60000C0F69D0A2EB030280EA010C49024FEAA1
:100E7000402037D04FF0805343EA111143EA10135A
:100E80000CF000408B4238BF5B0042F17D024FF412
:100E9000000C8B4224BF5B1A40EA0C00B3EB510FED
:100EA00024BFA3EB510340EA5C00B3EB910F24BFD6
:100EB000A3EB910340EA9C00B3EBD10F24BFA3EB5B
:100EC000D10340EADC001B0118BF5FEA1C1CE0D123
:100ED000FD2A3FF650AF8B4240EBC25008BF20F0D6
:100EE000010070470CF0004C4CEA50207F32C2BF2A
:100EF000D2F1FF0340EAC250704740F400004FF0C7
:100F00000003013A37E792F0000F00F0004C02BFF7
:100F1000400010F4000F013AF9D040EA0C0093F0C1
:100F2000000F01F0004C02BF490011F4000F013B1B
:100F3000F9D041EA0C0195E70CEAD15392EA0C0F83
:100F400008D142027FF47DAF93EA0C0F7FF470AFBB
:100F5000084676E793EA0C0F04D14B023FF44CAFFE
:100F600008466EE730F0004C18BF31F0004CCAD193
:100F700030F000427FF45CAF31F000437FF43CAFCF
:100F80005FE700BF4FF0FF3C06E000BF4FF0010CF1
:100F900002E000BF4FF0010C4DF804CD4FEA4002D3
:100FA0004FEA41037FEA226C18BF7FEA236C11D01D
:100FB00001B052EA530C18BF90EA010F58BFB2EBD0
:100FC000030088BFC81738BF6FEAE17018BF40F050
:100FD000010070477FEA226C02D15FEA402C05D104
:100FE0007FEA236CE4D15FEA412CE1D05DF8040B89
:100FF000704700BF844608466146FFE70FB5FFF71C
:10100000C9FF002848BF10F1000F0FBD4DF808EDD3
:10101000FFF7F4FF0CBF012000205DF808FB00BFC4
:101020004DF808EDFFF7EAFF34BF012000205DF81E
:1010300008FB00BF4DF808EDFFF7E0FF94BF01206B
:1010400000205DF808FB00BF4DF808EDFFF7D2FF68
:1010500094BF012000205DF808FB00BF4DF808EDAB
:10106000FFF7C8FF34BF012000205DF808FB00BF78
:101070004FEA4002B2F1FE4F0FD34FF09E03B3EBA5
:1010800012620DD94FEA002343F0004310F0004FE5
:1010900023FA02F018BF404270474FF0000070473B
:1010A00012F1610F01D1420205D110F0004008BFDA
:1010B0006FF0004070474FF00000704742000ED2C2
:1010C000B2F1FE4F0BD34FF09E03B3EB126209D483
:1010D0004FEA002343F0004323FA02F070474FF039
:1010E0000000704712F1610F01D1420202D14FF0AE
:1010F000FF3070474FF00000704700BF80B400AF72
:1011000000BFBD4680BC704780B500AFFFF7F6FF5B
:1011100000221021024802F0ADFB00BF80BD00BFDD
:101120000008014080B500AF01221021024802F002
:10113000A1FB00BF80BD00BF0008014080B586B0A4
:1011400002AF0346FB710023FB7307F10F02F91D89
:101150004FF4805300930123064804F022F903461C
:10116000002B01D0FF2300E0FB7B18461037BD4663
:1011700080BD00BF6C01002080B582B000AF7860F8
:101180000B46FB7013463B80FFF7BEFFFB7818460B
:10119000FFF7D4FF0AE07B681B781846FFF7CEFF05
:1011A0003B88013B3B807B6801337B603B88002BA5
:1011B000F1D1FFF7B7FF00BF0837BD4680BD000083
:1011C00080B584B000AF78600B46FB7013463B805F
:1011D000FFF79AFF8022FB781343DBB2FB7307F122
:1011E0000F014FF0FF330122074803F07DFE3A88DC
:1011F0004FF0FF337968044803F0BAFFFFF792FF1E
:1012000000BF1037BD4680BD6C01002080B582B0A4
:1012100000AF03460A46FB711346BB71F979BB1D4B
:1012200001221846FFF7A8FF0A2001F0BBFF00BF0C
:101230000837BD4680BD80B582B000AF03463A6036
:10124000FB710B46BB71BB799AB2FB7919463868C2
:10125000FFF7B6FF00BF0837BD4680BD80B582B03E
:1012600000AF03460A46FB711346BB7125230C22CF
:1012700011461846FFF7CAFF2622FB791946104689
:10128000FFF7C4FF6322BB7919461046FFF7BEFF84
:101290002722802343F00103DBB219461046FFF7F3
:1012A000B5FF00BF0837BD4680BD80B582B000AF36
:1012B00003463A60FB710B46BB7125200C2280234C
:1012C0001343DBB21946FFF7A1FF2622FB7919462B
:1012D0001046FFF79BFF27208022BB791343DBB228
:1012E0001946FFF793FF012001F05CFF4920BB790D
:1012F0003A681946FFF79FFF00BF0837BD4680BD1B
:1013000080B500AF7523044A01211846FFF793FF0B
:10131000014B1B78184680BD8400002080B500AFCB
:101320000023044A01211846FFF7BFFF014B1B7839
:10133000184680BD8400002080B582B000AF6B23CA
:10134000012211461846FFF761FF6A232022114649
:101350001846FFF75BFF24230D2211461846FFF7BE
:1013600055FF0A23002211461846FFF777FF6B232B
:10137000802211461846FFF749FF0A2001F012FFAC
:101380000B23012211461846FFF768FF6B23012249
:1013900011461846FFF73AFFFFF7B2FF0346FB710D
:1013A000FB79712B04D0FB79732B01D001236CE006
:1013B0006C23002211461846FFF728FF1C23182231
:1013C00011461846FFF722FF1B230022114618463C
:1013D000FFF71CFF1D23012211461846FFF716FFD9
:1013E0001A23012211461846FFF710FF1923002186
:1013F0001846FFF70BFF6A23202211461846FFF715
:1014000005FF24230D2211461846FFF7FFFEFFF7C4
:1014100085FF0346482B01D0012336E00A23002232
:1014200011461846FFF71AFF642001F0BBFE0A239D
:101430000F2211461846FFF711FF642001F0B2FE9B
:101440001023144A03211846FFF72FFF0A23002216
:1014500011461846FFF702FF642001F0A3FE0A239D
:10146000162211461846FFF7F9FE642001F09AFE95
:101470006B23012211461846FFF7C8FE0323064AD4
:1014800007211846FFF711FF002318460837BD460D
:1014900080BD00BF9C0000208400002090B587B074
:1014A00000AFF860B9607A603B23734A1521184693
:1014B000FFF7C1FE704B1B781BB21B021AB26E4BBA
:1014C0005B781BB213431AB2FB681A806A4B9B7895
:1014D0001BB21B0219B2684BDB781AB2FB680233ED
:1014E0000A4312B21A80644B1B791BB21B0219B259
:1014F000614B5B791AB2FB6804330A4312B21A805B
:101500005D4B1B7A1BB21B021AB25B4B5B7A1BB2A0
:1015100013431AB27B681A80574B9B7A1BB21B028B
:1015200019B2554BDB7A1AB27B6802330A4312B206
:101530001A80514B1B7B1BB21B0219B24E4B5B7BBB
:101540001AB27B6804330A4312B21A804A4BDB7B1F
:101550001BB21B021AB2484B9B7B1BB21343FB828C
:10156000454B5B7C1BB21B021AB2434B1B7C1BB26C
:101570001343BB82404BDB7C1BB21B021AB23E4BB7
:101580009B7C1BB213437B82B7F916301846FFF7DA
:1015900055FB0446394B1B78803B1846FFF74EFB42
:1015A00003464FF087411846FFF750FC03464FF0C3
:1015B0007E511846FFF78EFA034619462046FFF77C
:1015C00091FB03461846FFF753FD03461AB2BB686A
:1015D0001A80B7F914301846FFF730FB0446274B42
:1015E0005B78803B1846FFF729FB03464FF08741A5
:1015F0001846FFF72BFC03464FF07E511846FFF7C5
:1016000069FA034619462046FFF76CFB03461A4663
:10161000BB689C1C1046FFF72BFD03461BB22380C2
:10162000B7F912301846FFF709FB0446134B9B78B5
:10163000803B1846FFF702FB03464FF087411846F0
:10164000FFF704FC03464FF07E511846FFF742FABD
:10165000034619462046FFF745FB03461A46BB687A
:101660001C1D1046FFF704FD03461BB2238000BF7C
:101670001C37BD4690BD00BF840000209C000020A8
:1016800080B588B004AF0346FB7100233B814FF067
:101690000003FB60FB79022B0CD10A230293022387
:1016A000019307F108030093012303220C2114483E
:1016B00002F03CFAFB79012B0CD10A23029302239E
:1016C000019307F108030093012303220C210D4825
:1016D00002F02CFA3B7A9B017A7A9208D2B2134339
:1016E0001846FFF7ABFA03464FF08D411846FFF757
:1016F000ADFB0346FB60FB6818461037BD4680BD56
:10170000C40000201801002080B584B000AF8A4BCF
:101710001B68FB600120FFF7B3FFB8604FF00003C8
:101720007B60F968B868FFF771FC0346002B04D0B2
:10173000824B4FF000021A6095E0F968B868FFF735
:101740006FFC0346002B47D0B968F868FFF7C0F973
:1017500003464FF07C511846FFF780FC0346002BF0
:1017600021D0F9684FF07E50FFF7B2F903461946D1
:10177000B868FFF7AFF903467B60714B1B68796867
:101780001846FFF7A5F903461A466D4B1A607B68A9
:1017900083F000436B491846FFF758FB03461A468F
:1017A000664B1A605FE0B968F868FFF791F9034685
:1017B0007B60634B1B6879681846FFF78BF903461B
:1017C0001A465F4B1A605F497868FFF73FFB034694
:1017D0001A465A4B1A6046E0F968B868FFF778F97C
:1017E00003464FF07C511846FFF738FC0346002BA8
:1017F0001ED0B9684FF07E50FFF76AF903461946CC
:10180000F868FFF767F903467B604D4B1B68796802
:101810001846FFF75FF903461A46494B1A604949D3
:101820007868FFF713FB03461A46444B1A601AE028
:10183000F968B868FFF74CF903467B60404B1B68BA
:1018400079681846FFF744F903461A463C4B1A607C
:101850007B6883F000433B491846FFF7F7FA0346DD
:101860001A46364B1A60344ABB681360364B1B6805
:10187000FB600220FFF704FFB8604FF000037B60BD
:10188000F968B868FFF7C2FB0346002B04D02F4B62
:101890004FF000021A60A4E0F968B868FFF7C0FBD7
:1018A0000346002B56D0B968F868FFF711F90346D4
:1018B0004FF07C511846FFF7D1FB0346002B1ED09A
:1018C000F9684FF07E50FFF703F903461946B868F0
:1018D000FFF700F903467B601D4B1B6879681846CB
:1018E000FFF7F8F803461A46194B1A60154978684D
:1018F000FFF7ACFA03461A46144B1A6071E0B96858
:10190000F868FFF7E5F803467B60114B1B687968C0
:101910001846FFF7DDF803461A460D4B1A607B6840
:1019200083F0004307491846FFF790FA03461A462A
:10193000064B1A6055E000BFA4000020A80000205C
:10194000A0000020CDCCCC3DB0000020B400002091
:10195000AC000020F968B868FFF7BAF803464FF00A
:101960007C511846FFF77AFB0346002B21D0B9685B
:101970004FF07E50FFF7ACF803461946F868FFF7C2
:10198000A9F803467B601A4B1B6879681846FFF775
:101990009FF803461A46164B1A607B6883F0004393
:1019A00014491846FFF752FA03461A46124B1A60BA
:1019B00017E0F968B868FFF78BF803467B600C4BBB
:1019C0001B6879681846FFF785F803461A46084BE6
:1019D0001A6008497868FFF739FA03461A46064B39
:1019E0001A60064ABB68136000BF1037BD4680BD51
:1019F000AC000020CDCCCC3DB4000020B0000020D5
:101A000080B582B000AF0346FB7197F90730002B19
:101A10000AD14FF0804300229A6300224FF4805194
:101A2000274801F027FF48E097F90730002B22DD17
:101A300097F907301846FFF701F903462149184680
:101A4000FFF750F9034620491846FFF743F80346CD
:101A50001846FFF733FB03469AB21C4B1A801B4B08
:101A60001A884FF080439A6301224FF48051144842
:101A700001F000FF21E097F907301846FFF7DEF884
:101A8000034613491846FFF72DF903461149184636
:101A9000FFF720F803461846FFF710FB03469AB2FB
:101AA0000A4B1A80094B1A884FF080439A63002230
:101AB0004FF48051024801F0DDFE0837BD4680BD7D
:101AC000000C01403F358EBFD538F242B8000020EF
:101AD000E71D47BF54E3284280B582B000AF0346FC
:101AE000FB7197F90730002B0AD14FF08043002299
:101AF0005A6300224FF40041274801F0BBFE48E042
:101B000097F90730002B22DD97F907301846FFF7C9
:101B100095F8034621491846FFF7E4F803462049A3
:101B20001846FEF7D7FF03461846FFF7C7FA0346E5
:101B30009AB21C4B1A801B4B1A884FF080435A6391
:101B400001224FF40041144801F094FE21E097F97E
:101B500007301846FFF772F8034613491846FFF797
:101B6000C1F8034611491846FEF7B4FF034618466C
:101B7000FFF7A4FA03469AB20A4B1A80094B1A8857
:101B80004FF080435A6300224FF40041024801F0B5
:101B900071FE0837BD4680BD001001403F358EBF45
:101BA000D538F242B8000020E71D47BF54E3284271
:101BB00080B582B000AF786039607868FEF72CFCA1
:101BC00033A3D3E90023FEF77FFC02460B46104601
:101BD0001946FEF729FF03462F4A13602E4B1B6858
:101BE0002E491846FFF73AFA0346002B02D02A4B3B
:101BF0002A4A1A60284B1B6829491846FFF710FA31
:101C00000346002B02D0244B254A1A603868FEF7A1
:101C100003FC1FA3D3E90023FEF756FC02460B4644
:101C200010461946FEF700FF03461E4A13601D4B7F
:101C30001B681A491846FFF711FA0346002B02D019
:101C4000184B164A1A60174B1B6815491846FFF7C0
:101C5000E7F90346002B02D0124B114A1A600E4BD3
:101C60001B681846FFF704FA03465BB21846FFF7F5
:101C7000C7FE0C4B1B681846FFF7FAF903465BB228
:101C80001846FFF729FF00BF0837BD4680BD00BFDB
:101C90001C7C613255300E40BC0000200000FC422C
:101CA0000000FCC2C000002080B500AF01F018FAAF
:101CB00000F0CAFA00F0A6FD00F002FB00F05CFBA9
:101CC00000F090FB00F0C4FB00F07AFC00F046FD51
:101CD00000F06EFD00F022FB00F0F2FCBA4B1B6836
:101CE000DA68B94B1B6842F02002DA60B64B1B6819
:101CF000DA68B54B1B6842F04002DA60B34803F083
:101D000053FE0021B14803F043FF0421AF4803F024
:101D10003FFF0821AD4803F03BFF00224FF4805104
:101D2000AB4801F0A7FD00224FF40041A94801F0A3
:101D3000A1FD01220121A84801F09CFDC82001F06D
:101D400031FA00220121A44801F094FDFFF7F4FAD2
:101D5000A24803F073FE4FF4FA7001F023FA012257
:101D600002219B4801F086FD9D4B02221A70012240
:101D70004FF40051974801F07DFD00224FF480415F
:101D8000944801F077FD0020FFF73AFE0020FFF7AE
:101D9000A3FE944B1B68944A126811461846FFF73D
:101DA00007FF0A2001F0FEF9904A91499148FFF798
:101DB00075FB8F4BB3F900301A468D4BB3F90030E9
:101DC00003FB02F28A4BB3F902301946884BB3F990
:101DD000023001FB03F31A44854BB3F90430194672
:101DE000834BB3F9043001FB03F313441846FEF7A9
:101DF00001FB02460B461046194605F0F1FB024670
:101E00000B4610461946FEF70FFE03467A4A13604A
:101E10007A4BB3F900301A46784BB3F9003003FB24
:101E200002F2764BB3F902301946744BB3F9023023
:101E300001FB03F31A44714BB3F9043019466F4B9D
:101E4000B3F9043001FB03F313441846FEF7D2FA4A
:101E500002460B461046194605F0C2FB02460B46E9
:101E600010461946FEF7E0FD0346654A1360604BD5
:101E7000B3F900301A46614BB3F9003003FB02F2AC
:101E80005B4BB3F9023019465C4BB3F9023001FBEE
:101E900003F31A44564BB3F904301946574BB3F9C0
:101EA000043001FB03F313441846FEF7C7FE024655
:101EB000514B1B6819461046FEF7C8FF03461A46E9
:101EC0004F4B1B6819461046FEF7C0FF03461846E5
:101ED000FEF7A2FA02460B461046194605F058FBDB
:101EE00037A3D3E90023FEF7EFFA02460B4610466C
:101EF00019464FF00002434BFEF710FC02460B461A
:101F000010461946FEF790FD03463F4A13603F4BCB
:101F10007E221A70374BB3F900203D4B1A803C4BA0
:101F20001A783A4B5A703A4B5A78384B9A70314B70
:101F3000B3F90220364B1A80354B1A78334BDA70DE
:101F4000334B5A78314B1A712A4BB3F90420304B7A
:101F50001A802F4B1A782D4B5A712D4B5A782B4BD8
:101F60009A71224BB3F90020294B1A80284B1A781A
:101F7000264BDA71264B5A78244B1A721B4BB3F955
:101F80000220234B1A80224B1A78204B5A72204B86
:101F90005A781E4B9A72154BB3F904201C4B1A80C9
:101FA0001B4B1A78194BDA72194B5A78174B1A7364
:101FB0000F4BB3F90020164B1A802BE0AFF30080D3
:101FC0003411363CBD520B40F40200206402002064
:101FD000000C01400010014000140140AC02002040
:101FE000A8030020F0030020F40300208C0300204D
:101FF00094030020840300209C03002000000020A4
:10200000A003002000806640A4030020AC03002051
:10201000D4030020804B1A78804B5A737E4B5A7839
:102020007E4B9A737E4BB3F902207B4B1A807A4B1E
:102030001A787A4BDA73784B5A78784B1A74784B53
:10204000B3F90420744B1A80734B1A78734B5A748B
:10205000714B5A78714B9A74724B1B681846FEF795
:10206000DBF94FF00002704BFEF72EFA02460B46EA
:102070001046194666A3D3E90023FEF725FA024667
:102080000B4610461946FEF7CFFC0346674A13601D
:10209000664B1A78614BDA74644B5A785F4B1A7549
:1020A000624B9A785D4B5A75604BDA785B4B9A7548
:1020B0005F4B1B681846FEF7AFF94FF000025A4B12
:1020C000FEF702FA02460B461046194650A3D3E922
:1020D0000023FEF7F9F902460B4610461946FEF7B3
:1020E000A3FC0346514A1360504B1A784B4BDA75E8
:1020F0004E4B5A78494B1A764C4B9A78474B5A7646
:102100004A4BDA78454B9A764A4B1B681846FEF7DD
:1021100083F94FF00002444BFEF7D6F902460B4616
:10212000104619463AA3D3E90023FEF7CDF902463B
:102130000B4610461946FEF777FC03463B4A1360F0
:102140003A4B1A78354BDA76384B5A78334B1A7744
:10215000364B9A78314B5A77344BDA782F4B9A7743
:10216000354B1B681846FEF757F94FF000022E4B0F
:10217000FEF7AAF902460B461046194624A3D3E9F6
:102180000023FEF7A1F902460B4610461946FEF75A
:102190004BFC0346254A1360244B1A781F4BDA7711
:1021A000224B5A781D4B83F82020204B9A781B4BEA
:1021B00083F821201D4BDA78184B83F822201F4B1F
:1021C0001B881AB2144B1A80134B1A78134B83F8DE
:1021D0002320114B5A78114B83F82420184B1B886D
:1021E0001AB20D4B1A800C4B1A780C4B83F8252031
:1021F000094B5A78094B83F826200A2327220749DE
:10220000104804F0CEFB00BFC3E500BFAFF3008071
:10221000F1D4C853FB210940D4030020AC030020B3
:1022200094030020A000002000000440D8030020F8
:10223000AC000020A8000020B40000200600002010
:1022400008000020F402002080B590B000AF07F134
:10225000180328220021184605F068F93B1D0022CA
:102260001A605A609A60DA601A610223BB61012326
:10227000BB621023FB6200237B6307F1180318463F
:1022800002F09EF90346002B01D000F091FB0F23D2
:102290007B600023BB600023FB6000233B610023C5
:1022A0007B613B1D0021184602F00CFC0346002B0D
:1022B00001D000F07DFB00BF4037BD4680BD00006F
:1022C00080B500AF124B134A1A60114B124A5A6084
:1022D0000F4B00229A600E4B0022DA600C4B4FF439
:1022E00080421A610A4B00225A61094B00229A610E
:1022F000074B0022DA61064B00221A62044801F003
:10230000D1FA0346002B01D000F052FB00BF80BD84
:10231000C400002000540040A086010080B500AF3A
:10232000124B134A1A60114B124A5A600F4B00228B
:102330009A600E4B0022DA600C4B4FF480421A6117
:102340000A4B00225A61094B00229A61074B002276
:10235000DA61064B00221A62044801F0A3FA034630
:10236000002B01D000F024FB00BF80BD180100202D
:1023700000580040A086010080B500AF174B184AF6
:102380001A60164B4FF482725A60144B00229A6006
:10239000124B0022DA60114B00221A610F4B00220F
:1023A0005A610E4B4FF400729A610C4B1822DA619D
:1023B0000A4B00221A62094B00225A62074B002284
:1023C0009A62064B0A22DA62044802F009FD0346CB
:1023D000002B01D000F0ECFA00BF80BD6C010020A2
:1023E0000030014080B500AF174B184A1A60164BF9
:1023F0004FF482725A60144B00229A60124B0022F2
:10240000DA60114B00221A610F4B00225A610E4B09
:102410004FF400729A610C4B0022DA610A4B0022E1
:102420001A62094B00225A62074B00229A62064B3D
:102430000A22DA62044802F0D3FC0346002B01D0E2
:1024400000F0B6FA00BF80BDC40100200038004093
:1024500080B596B000AF07F1480300221A605A60B9
:102460009A60DA6007F1400300221A605A6007F1AF
:10247000240300221A605A609A60DA601A615A6175
:102480009A613B1D20220021184605F04FF84A4B67
:102490004A4A1A60484B00225A60474B00229A6011
:1024A000454B4FF6FF72DA60434B00221A61424BF4
:1024B00000225A61404B00229A613F4803F025FAFE
:1024C0000346002B01D000F073FA4FF48053BB6435
:1024D00007F148031946384803F0AEFD0346002BC8
:1024E00001D000F065FA344803F0FAFA0346002BF5
:1024F00001D000F05DFA00233B6400237B6407F108
:10250000400319462C4804F03BF90346002B01D048
:1025100000F04EFA60237B620023BB620023FB6263
:1025200000233B6300237B630023BB630023FB6327
:1025300007F12403002219461F4803F0BBFC0346A1
:10254000002B01D000F034FA07F1240304221946CD
:10255000194803F0AFFC0346002B01D000F028FA25
:1025600007F1240308221946134803F0A3FC03468D
:10257000002B01D000F01CFA00237B600023BB601D
:102580000023FB6000233B6100237B614FF4005379
:10259000BB6100233B623B1D1946074804F04EF91E
:1025A0000346002B01D000F003FA034800F086FB3D
:1025B00000BF5837BD4680BD1C020020002C0140E2
:1025C00080B58EB000AF07F1280300221A605A6070
:1025D0009A60DA6007F1200300221A605A603B1DFE
:1025E00000221A605A609A60DA601A615A619A6130
:1025F000324B4FF080421A60304B07225A602F4B0B
:1026000000229A602D4B7F22DA602C4B00221A6147
:102610002A4B00229A61294803F077F90346002BE0
:1026200001D000F0C5F94FF48053BB6207F12803D5
:102630001946224803F000FD0346002B01D000F0AC
:10264000B7F91E4803F04CFA0346002B01D000F006
:10265000AFF900233B6200237B6207F12003194698
:10266000164804F08DF80346002B01D000F0A0F9C5
:1026700060237B600023BB600023FB6000237B6141
:102680003B1D002219460D4803F014FC0346002BA5
:1026900001D000F08DF93B1D04221946074803F0D4
:1026A00009FC0346002B01D000F082F9034800F03A
:1026B00005FB00BF3837BD4680BD00BF6402002067
:1026C00080B586B000AF07F1080300221A605A6097
:1026D0009A60DA603B4600221A605A601D4B1E4A1F
:1026E0001A601C4B41F63F725A601A4B00229A60E6
:1026F000184B6322DA60174B00221A61154B002237
:102700009A61144803F001F90346002B01D000F050
:102710004FF94FF48053BB6007F1080319460D4889
:1027200003F08AFC0346002B01D000F041F900239E
:102730003B6000237B603B461946064804F020F8C6
:102740000346002B01D000F033F900BF1837BD4617
:1027500080BD00BFAC0200200004004080B500AF87
:10276000114B124A1A60104B4FF4E1325A600E4B73
:1027700000229A600C4B0022DA600B4B00221A6197
:10278000094B0C225A61084B00229A61064B002229
:10279000DA61054804F0B5F80346002B01D000F0DB
:1027A00007F900BF80BD00BFF402002000380140DF
:1027B00080B500AF114B124A1A60104B4FF4E13252
:1027C0005A600E4B00229A600C4B0022DA600B4BD1
:1027D00000221A61094B0C225A61084B00229A61AF
:1027E000064B0022DA61054804F08BF80346002B03
:1027F00001D000F0DDF800BF80BD00BF3C03002029
:102800000044004080B58AB000AF07F114030022F5
:102810001A605A609A60DA605E4B9B695D4A43F0C9
:10282000100393615B4B9B6903F010033B613B69B1
:10283000584B9B69574A43F020039361554B9B6962
:1028400003F02003FB60FB68524B9B69514A43F045
:10285000040393614F4B9B6903F00403BB60BB68A7
:102860004C4B9B694B4A43F008039361494B9B696E
:1028700003F008037B607B6800224FF46041464808
:1028800000F0F8FF00220321444800F0F3FF00228B
:1028900049F61001424800F0EDFF002241F23B01F1
:1028A000404800F0E7FF4FF460437B610123BB61C8
:1028B0000023FB6102233B6207F1140319463648EB
:1028C00000F054FE03237B610123BB610023FB6105
:1028D00002233B6207F114031946304800F046FE1C
:1028E00041F610037B610123BB610023FB610223DE
:1028F0003B6207F114031946294800F037FE3B23D9
:102900007B610123BB610023FB6102233B6207F172
:1029100014031946234800F029FE04237B61224B4F
:10292000BB610023FB6107F1140319461D4800F049
:102930001DFE4FF480537B610123BB610223FB61C9
:1029400002233B6207F114031946164800F00EFEFD
:102950004FF400437B610123BB610223FB6102232F
:102960003B6207F1140319460D4800F0FFFD0F4BC1
:102970005B687B627B6A43F0E0637B627B6A43F463
:1029800000437B62094A7B6A536000BF2837BD461B
:1029900080BD00BF00100240001001400014014043
:1029A00000080140000C014000001110000001402F
:1029B00080B400AF72B600BF00BFFDE780B485B041
:1029C00000AF154B9B69144A43F001039361124B0E
:1029D0009B6903F00103BB60BB680F4BDB690E4AC8
:1029E00043F08053D3610C4BDB6903F080537B6071
:1029F0007B680A4B5B68FB60FB6823F0E063FB606D
:102A0000FB6843F00073FB60044AFB68536000BF3F
:102A10001437BD4680BC70470010024000000140E2
:102A200080B58CB000AF786007F11C0300221A60FB
:102A30005A609A60DA607B681B68324A934233D1ED
:102A4000314B9B69304A43F0080393612E4B9B69DD
:102A500003F00803BB61BB694FF44073FB611223B1
:102A60003B620323BB6207F11C031946274800F0B1
:102A70007DFD274B5B68FB62FB6A43F0E063FB6212
:102A8000FB6A43F00203FB62214AFB6A53601E4B60
:102A9000DB691D4A43F40013D3611B4BDB6903F46C
:102AA00000137B617B6929E07B681B68194A9342AC
:102AB00024D1154B9B69144A43F008039361124BD0
:102AC0009B6903F008033B613B694FF44063FB6182
:102AD00012233B620323BB6207F11C0319460B4818
:102AE00000F044FD084BDB69074A43F48003D361DF
:102AF000054BDB6903F48003FB60FB6800BF3037E4
:102B0000BD4680BD0054004000100240000C014052
:102B1000000001400058004080B58AB000AF7860E6
:102B200007F1180300221A605A609A60DA607B6825
:102B30001B68374A934230D1364B9B69354A43F480
:102B400080539361334B9B6903F480537B617B69B2
:102B5000304B9B692F4A43F0040393612D4B9B69D3
:102B600003F004033B613B69A023BB610223FB61CB
:102B700003237B6207F118031946274800F0F6FC8F
:102B80004023BB610023FB6100233B6207F1180374
:102B90001946214800F0EAFC36E07B681B681F4AB2
:102BA000934231D11B4BDB691A4A43F48043D36112
:102BB000184BDB6903F48043FB60FB68154B9B6992
:102BC000144A43F008039361124B9B6903F0080316
:102BD000BB60BB684FF42043BB610223FB6103234E
:102BE0007B6207F1180319460D4800F0BFFC4FF453
:102BF0008043BB610023FB6100233B6207F11803A4
:102C00001946074800F0B2FC00BF2837BD4680BD1A
:102C10000030014000100240000801400038004030
:102C2000000C014080B586B000AF78607B681B68FF
:102C30001F4A93420CD11F4B9B691E4A43F4006309
:102C400093611C4B9B6903F400637B617B692AE001
:102C50007B681B68B3F1804F0CD1164BDB69154ABA
:102C600043F00103D361134BDB6903F001033B61C4
:102C70003B6918E07B681B680F4A934213D10D4BE8
:102C8000DB690C4A43F00203D3610A4BDB6903F0B2
:102C90000203FB60FB68002200211D2000F07DFB89
:102CA0001D2000F096FB00BF1837BD4680BD00BF59
:102CB000002C0140001002400004004080B588B0A4
:102CC00000AF786007F1100300221A605A609A6022
:102CD000DA607B681B681F4A934219D11E4B9B69BF
:102CE0001D4A43F0040393611B4B9B6903F00403EB
:102CF000FB60FB684FF4E0633B6102237B610223CE
:102D0000FB6107F110031946144800F02FFC1CE08A
:102D10007B681B68B3F1804F17D10F4B9B690E4A3C
:102D200043F0040393610C4B9B6903F00403BB6005
:102D3000BB6803233B6102237B610223FB6107F134
:102D400010031946054800F011FC00BF2037BD46AE
:102D500080BD00BF002C014000100240000801406F
:102D600080B58CB000AF786007F11C0300221A60B8
:102D70005A609A60DA607B681B68454A934246D184
:102D8000444B9B69434A43F480439361414B9B69A5
:102D900003F48043BB61BB693E4B9B693D4A43F0F2
:102DA000080393613B4B9B6903F008037B617B69DC
:102DB0004023FB6102233B620323BB6207F11C0338
:102DC0001946354800F0D2FB8023FB6100233B62AB
:102DD00000237B6207F11C0319462F4800F0C6FB55
:102DE0002E4B5B68FB62FB6A43F0E063FB62FB6AAD
:102DF00043F00403FB62294AFB6A5360002200216E
:102E0000252000F0CAFA252000F0E3FA3CE07B68B8
:102E10001B68234A934237D11E4BDB691D4A43F49A
:102E20000033D3611B4BDB6903F400333B613B6927
:102E3000184B9B69174A43F004039361154B9B6938
:102E400003F00403FB60FB680423FB6102233B6285
:102E50000323BB6207F11C031946124800F086FBEE
:102E60000823FB6100233B6200237B6207F11C0304
:102E700019460C4800F07AFB00220021262000F0C1
:102E80008CFA262000F0A5FA00BF3037BD4680BD81
:102E90000038014000100240000C014000000140D9
:102EA000004400400008014080B400AF00BFFDE7CF
:102EB00080B400AF00BFFDE780B400AF00BFFDE706
:102EC00080B400AF00BFFDE780B400AF00BFFDE7F6
:102ED00080B400AF00BFBD4680BC704780B400AF77
:102EE00000BFBD4680BC704780B400AF00BFBD4688
:102EF00080BC704780B500AF00F038F900BF80BDDE
:102F000080B500AFFEF700FC024802F0E3FE00BF10
:102F100080BD00BFAC02002080B500AF314B1B6804
:102F200003F02003002B57D02E4B5B68DAB22E4BF8
:102F30001A702E4B1B78002B0CD02C4B1B781A468A
:102F4000294B19782A4B9954284B1B780133DAB254
:102F5000264B1A70254B1B780A2B2ED1244B5A78FE
:102F6000244B1A70224B9A78224B5A70204BDA78F5
:102F7000204B9A701E4B1A791E4BDA701D4B1B6842
:102F80001D4A13601A4B5A791A4B1A70184B9A79CA
:102F9000184B5A70164BDA79164B9A70144B1A7AF2
:102FA000144BDA70134B1B68144A1360104B5A7A97
:102FB000134B1A700D4B00221A700C4B1B78002B10
:102FC0000AD1094B1B787E2B06D1084B01221A70BF
:102FD000054B1A78064B1A700A4803F06DFD00BFC6
:102FE00080BD00BF00380140DC030020DD0300206D
:102FF000E0030020EC030020F0030020F403002095
:10300000F8030020F402002080B500AF184B1B68C5
:1030100003F02003002B25D0154B5B68DAB2154B6B
:103020001A70154B1B78022B06D1124B1A78134BD2
:103030001A70114B03221A700F4B1B78012B06D10B
:103040000C4B1A780E4B1A700B4B02221A700A4B5B
:103050001B78002B06D1074B1B787E2B02D1064B29
:1030600001221A70074803F027FD00BF80BD00BF92
:1030700000440040DC030020DD030020DF030020CB
:10308000DE0300203C03002080B400AF00BFBD463B
:1030900080BC7047FFF7F8FF0B480C490C4A00232F
:1030A00002E0D458C4500433C4188C42F9D3094AFE
:1030B000094C002301E013600432A242FBD304F068
:1030C00043FAFEF7F1FD7047000000206800002081
:1030D000E07C00086800002038050020FEE70000C2
:1030E00080B500AF084B1B68074A43F0100313601C
:1030F000032000F047F90F2000F008F8FFF75EFC0E
:103100000023184680BD00BF0020024080B582B079
:1031100000AF7860124B1A68124B1B7819464FF4B7
:103120007A73B3FBF1F3B2FBF3F3184600F05FF9E7
:103130000346002B01D001230EE07B680F2B0AD839
:10314000002279684FF0FF3000F027F9064A7B68CB
:103150001360002300E0012318460837BD4680BDF8
:103160000C000020140000201000002080B400AFEC
:10317000054B1B781A46054B1B681344034A136022
:1031800000BFBD4680BC704714000020FC03002037
:1031900080B400AF024B1B681846BD4680BC704728
:1031A000FC03002080B584B000AF7860FFF7F0FF2B
:1031B000B8607B68FB60FB68B3F1FF3F05D00A4B4A
:1031C0001B781A46FB681344FB6000BFFFF7E0FF63
:1031D0000246BB68D31AFA689A42F7D800BF00BF0C
:1031E0001037BD4680BD00BF1400002080B485B0FC
:1031F00000AF78607B6803F00703FB600C4BDB6873
:10320000BB60BA684FF6FF031340BB60FB681A024D
:10321000BB68134343F0BF6343F40033BB60044A0D
:10322000BB68D36000BF1437BD4680BC704700BF89
:1032300000ED00E080B400AF044BDB681B0A03F034
:1032400007031846BD4680BC704700BF00ED00E094
:1032500080B483B000AF0346FB7197F90730002BB1
:103260000BDBFB7903F01F02064997F907305B0976
:10327000012000FA02F241F8232000BF0C37BD46BE
:1032800080BC704700E100E080B483B000AF03462B
:103290003960FB7197F90730002B0ADB3B68DAB223
:1032A0000C4997F907301201D2B20B4483F800237E
:1032B0000AE03B68DAB20849FB7903F00F03043BEC
:1032C0001201D2B20B441A7600BF0C37BD4680BC47
:1032D000704700BF00E100E000ED00E080B489B07D
:1032E00000AFF860B9607A60FB6803F00703FB6128
:1032F000FB69C3F10703042B28BF0423BB61FB69EF
:103300000433062B02D9FB69033B00E000237B61F9
:103310004FF0FF32BB6902FA03F3DA43BB681A408D
:103320007B699A404FF0FF317B6901FA03F3D9437F
:103330007B680B40134318462437BD4680BC70475A
:1033400080B582B000AF78607B68013BB3F1807FCD
:1033500001D301230FE00A4A7B68013B53600F2130
:103360004FF0FF30FFF790FF054B00229A60044BAF
:1033700007221A60002318460837BD4680BD00BFEB
:1033800010E000E080B582B000AF78607868FFF7A9
:103390002DFF00BF0837BD4680BD80B586B000AFA9
:1033A0000346B9607A60FB7300237B61FFF742FF3D
:1033B00078617A68B9687869FFF790FF024697F9F3
:1033C0000F3011461846FFF75FFF00BF1837BD46A4
:1033D00080BD80B582B000AF0346FB7197F907301E
:1033E0001846FFF735FF00BF0837BD4680BD80B5E2
:1033F00082B000AF78607868FFF7A2FF03461846F6
:103400000837BD4680BD80B485B000AF786000232A
:10341000FB737B6893F82130DBB2022B08D07B680A
:1034200004229A637B68002283F82020012320E095
:103430007B681B681A687B681B6822F00E021A60A2
:103440007B681B681A687B681B6822F001021A609F
:103450007B681A6C7B68DB6B012101FA02F25A600F
:103460007B68012283F821207B68002283F82020DA
:10347000FB7B18461437BD4680BC704780B584B0CE
:1034800000AF78600023FB737B6893F82130DBB2D8
:10349000022B05D07B6804229A630123FB7351E061
:1034A0007B681B681A687B681B6822F00E021A6032
:1034B0007B681B681A687B681B6822F001021A602F
:1034C0007B681B68224A934229D07B681B68214A8B
:1034D000934222D07B681B681F4A93421AD07B68B4
:1034E0001B681E4A934212D07B681B681C4A934299
:1034F0000AD07B681B681B4A934202D14FF48013A9
:103500000EE04FF080730BE04FF4803308E04FF48F
:10351000805305E04FF4807302E0102300E00123A4
:10352000114A53607B68012283F821207B680022C6
:1035300083F820207B685B6B002B03D07B685B6B80
:1035400078689847FB7B18461037BD4680BD00BFA2
:10355000080002401C0002403000024044000240CB
:10356000580002406C0002400000024080B48BB062
:1035700000AF7860396000237B6200233B6269E121
:1035800001227B6A02FA03F3FB613B681B68FA695C
:103590001340BB61BA69FB699A4240F058813B68AD
:1035A0005B689A4A93425ED0984A934275D8984A8B
:1035B000934258D0964A93426FD8964A934252D03B
:1035C000944A934269D8944A93424CD0924A934287
:1035D00063D8924A934246D0904A93425DD8122BC8
:1035E0002AD8122B59D801A252F823F067360008C6
:1035F0004136000853360008953600089B3600080F
:103600009B3600089B3600089B3600089B36000856
:103610009B3600089B3600089B3600089B36000846
:103620009B3600089B3600089B3600089B36000836
:10363000493600085D360008794A934213D02CE0E1
:103640003B68DB683B6229E03B68DB6804333B6234
:1036500024E03B68DB6808333B621FE03B68DB68C3
:103660000C333B621AE03B689B68002B02D10423B9
:103670003B6213E03B689B68012B05D108233B624A
:103680007B68FA691A6109E008233B627B68FA6982
:103690005A6103E000233B6200E000BFBB69FF2BDF
:1036A00001D87B6801E07B6804337B61BB69FF2B39
:1036B00002D87B6A9B0002E07B6A083B9B003B616F
:1036C0007B691A680F213B6901FA03F3DB431A4057
:1036D000396A3B6901FA03F31A437B691A603B6854
:1036E0005B6803F08053002B00F0B1804D4B9B6969
:1036F0004C4A43F0010393614A4B9B6903F0010379
:10370000BB60BB68484A7B6A9B08023352F823308F
:10371000FB607B6A03F003039B000F2202FA03F3B2
:10372000DB43FA681340FB607B68404A934213D046
:103730007B683F4A93420DD07B683E4A934207D054
:103740007B683D4A934201D1032306E0042304E051
:10375000022302E0012300E000237A6A02F0030260
:1037600092009340FA681343FB602F497B6A9B08E1
:103770000233FA6841F823203B685B6803F4801346
:10378000002B06D02D4B9A682C49BB6913438B60E4
:1037900006E02A4B9A68BB69DB43284913408B60DB
:1037A0003B685B6803F40013002B06D0234BDA68F8
:1037B0002249BB691343CB6006E0204BDA68BB6942
:1037C000DB431E491340CB603B685B6803F4003366
:1037D000002B06D0194B5A681849BB6913434B603C
:1037E00006E0164B5A68BB69DB43144913404B6033
:1037F0003B685B6803F48033002B21D00F4B1A68C1
:103800000E49BB6913430B6021E000BF000032107A
:1038100000003110000022100000211000001210E2
:10382000000011100010024000000140000801409B
:10383000000C014000100140001401400004014050
:103840000B4B1A68BB69DB43094913400B607B6A69
:1038500001337B623B681A687B6A22FA03F3002B10
:103860007FF48EAE00BF00BF2C37BD4680BC7047D2
:103870000004014080B483B000AF78600B467B80C9
:1038800013467B707B78002B03D07A887B681A61A3
:1038900003E07B881A047B681A6100BF0C37BD46C1
:1038A00080BC704780B584B000AF78607B68002B27
:1038B00001D101232BE17B6893F83D30DBB2002B73
:1038C00006D17B68002283F83C207868FFF7A8F8CF
:1038D0007B68242283F83D207B681B681A687B681C
:1038E0001B6822F001021A607B681B681A687B68FB
:1038F0001B6842F400421A607B681B681A687B6888
:103900001B6822F400421A6001F024FAF8607B6818
:103910005B68814A934207D8FB68804A934294BF10
:1039200001230023DBB206E0FB687D4A934294BF8B
:1039300001230023DBB2002B01D00123E7E0FB6869
:10394000784AA2FB03239B0CBB607B681B685B6807
:1039500023F03F017B681B68BA680A435A607B68A2
:103960001B681B6A23F03F017B685B686A4A9342CD
:1039700002D8BB68013309E0BB684FF4967202FBC2
:1039800003F3694AA2FB03239B0901337A68126897
:103990000B4313627B681B68DB6923F44F4222F000
:1039A000FF027B685B685C498B4219D8FB68591E33
:1039B0007B685B685B00B1FBF3F3591C40F6FC735A
:1039C0000B40002B0AD0FB68591E7B685B685B00CC
:1039D000B1FBF3F30133C3F30B0351E004234FE0D6
:1039E0007B689B68002B11D1FB68581E7B68596867
:1039F0000B465B000B44B0FBF3F30133C3F30B0343
:103A0000002B0CBF01230023DBB212E0FB68581E21
:103A10007B6859680B469B000B4499000B44B0FB34
:103A2000F3F30133C3F30B03002B0CBF012300237B
:103A3000DBB2002B01D0012322E07B689B68002BC6
:103A40000ED1FB68581E7B6859680B465B000B441F
:103A5000B0FBF3F30133C3F30B0343F400430FE074
:103A6000FB68581E7B6859680B469B000B44990005
:103A70000B44B0FBF3F30133C3F30B0343F44043B4
:103A8000796809681343CB617B681B681B6823F066
:103A9000C0017B68DA697B681B6A1A437B681B6814
:103AA0000A431A607B681B689B6823F4034323F076
:103AB000FF037A6811697A68D26811437A681268DC
:103AC0000B4393607B681B68DB6823F0FF017B6816
:103AD0005A697B689B691A437B681B680A43DA60F2
:103AE0007B681B681A687B681B6842F001021A60D9
:103AF0007B6800221A647B68202283F83D207B6863
:103B000000221A637B68002283F83E2000231846B7
:103B10001037BD4680BD00BFA08601007F841E0017
:103B2000FF083D0083DE1B43D34D621080B58CB08F
:103B300002AFF860084611461A4603467B810B46E1
:103B40003B811346FB8000233B62FFF721FB786239
:103B5000FB6893F83D30DBB2202B40F050827B6A4B
:103B60000093192301228249F86800F03BFB0346C9
:103B7000002B01D0022343E2FB6893F83C30012B79
:103B800001D102233CE2FB68012283F83C20FB6860
:103B90001B681B6803F00103012B07D0FB681B683F
:103BA0001A68FB681B6842F001021A60FB681B6818
:103BB0001A68FB681B6822F400621A60FB68222204
:103BC00083F83D20FB68402283F83E20FB680022FA
:103BD0001A64FB683A6B5A62FB68BA8E5A85FB68B6
:103BE0005B8D9AB2FB681A85FB68624ADA62F888D4
:103BF0003A8979897B6A0193BB6B00930346F86825
:103C000000F008FA0346002B01D00123F8E1FB681D
:103C10001B8D002B13D10023FB61FB681B685B69C4
:103C2000FB61FB681B689B69FB61FB69FB681B68A8
:103C30001A68FB681B6842F400721A60CCE1FB68EA
:103C40001B8D012B1ED1FB681B681A68FB681B6863
:103C500022F480621A6072B600BF0023BB61FB6869
:103C60001B685B69BB61FB681B689B69BB61BB69C7
:103C7000FB681B681A68FB681B6842F400721A60D4
:103C800062B635E0FB681B8D022B1ED1FB681B68FA
:103C90001A68FB681B6842F400621A6072B600BFC3
:103CA00000237B61FB681B685B697B61FB681B68A9
:103CB0009B697B617B69FB681B681A68FB681B68F2
:103CC00022F480621A6062B612E0FB681B681A6810
:103CD000FB681B6842F480621A6000233B61FB684A
:103CE0001B685B693B61FB681B689B693B613B69C7
:103CF00072E1FB681B8D032B00F21F81FB681B8D9B
:103D0000012B23D17A6AB96BF86800F0CDFB03462A
:103D1000002B01D0012373E1FB681B681A69FB6863
:103D20005B6AD2B21A70FB685B6A5A1CFB685A6203
:103D3000FB681B8D013B9AB2FB681A85FB685B8DA3
:103D40009BB2013B9AB2FB685A8545E1FB681B8D2B
:103D5000022B52D17B6A0093BB6B00220649F868A4
:103D600000F040FA0346002B08D0012348E100BFD1
:103D7000020010000000FFFF0400010072B600BF47
:103D8000FB681B681A68FB681B6842F400721A60C3
:103D9000FB681B681A69FB685B6AD2B21A70FB6821
:103DA0005B6A5A1CFB685A62FB681B8D013B9AB226
:103DB000FB681A85FB685B8D9BB2013B9AB2FB687E
:103DC0005A8562B600BFFB681B681A69FB685B6AAC
:103DD000D2B21A70FB685B6A5A1CFB685A62FB68B5
:103DE0001B8D013B9AB2FB681A85FB685B8D9BB209
:103DF000013B9AB2FB685A85EEE07B6A0093BB6B8D
:103E000000228149F86800F0EDF90346002B01D04B
:103E10000123F5E0FB681B681A68FB681B6822F445
:103E200080621A6072B600BFFB681B681A69FB6883
:103E30005B6AD2B21A70FB685B6A5A1CFB685A62F2
:103E4000FB681B8D013B9AB2FB681A85FB685B8D92
:103E50009BB2013B9AB2FB685A856C4B1B68DB082E
:103E60006B4AA2FB03231A0A13469B001344DA0091
:103E7000D31A3B623B6A013B3B623B6A002B18D181
:103E8000FB6800221A63FB68202283F83D20FB6850
:103E9000002283F83E20FB681B6C43F02002FB6885
:103EA0001A6462B600BFFB68002283F83C2001233D
:103EB000A6E0FB681B685B6903F00403042BD9D1FF
:103EC000FB681B681A68FB681B6842F400721A6082
:103ED000FB681B681A69FB685B6AD2B21A70FB68E0
:103EE0005B6A5A1CFB685A62FB681B8D013B9AB2E5
:103EF000FB681A85FB685B8D9BB2013B9AB2FB683D
:103F00005A8562B600BFFB681B681A69FB685B6A6A
:103F1000D2B21A70FB685B6A5A1CFB685A62FB6873
:103F20001B8D013B9AB2FB681A85FB685B8D9BB2C7
:103F3000013B9AB2FB685A854EE07A6AB96BF86821
:103F400000F0B2FA0346002B01D0012358E0FB68D1
:103F50001B681A69FB685B6AD2B21A70FB685B6AFD
:103F60005A1CFB685A62FB681B8D013B9AB2FB68C6
:103F70001A85FB685B8D9BB2013B9AB2FB685A8540
:103F8000FB681B685B6903F00403042B24D1FB6806
:103F90001B8D032B07D1FB681B681A68FB681B6825
:103FA00022F480621A60FB681B681A69FB685B6A0E
:103FB000D2B21A70FB685B6A5A1CFB685A62FB68D3
:103FC0001B8D013B9AB2FB681A85FB685B8D9BB227
:103FD000013B9AB2FB685A85FB681B8D002B7FF46E
:103FE00088AEFB68202283F83D20FB68002283F81E
:103FF0003E20FB68002283F83C20002300E00223DF
:1040000018462837BD4680BD040001000C00002082
:1040100089B5F81480B588B002AFF860084611463B
:104020001A4603467B810B463B811346FB80FB68A7
:104030001B681A68FB681B6842F480621A60FB68A0
:104040001B681A68FB681B6842F480721A607B6AFE
:1040500000933B6A00224FF00111F86800F0C2F8AB
:104060000346002B0DD0FB681B681B6803F48073AC
:10407000B3F5807F03D1FB684FF400721A64032309
:10408000AAE07B89DBB21A46FB681B6802F0FE02DD
:104090001A617B6A3A6A5249F86800F01DF90346D2
:1040A000002B01D0012397E000237B61FB681B6894
:1040B0005B697B61FB681B689B697B617B697A6AD2
:1040C000396AF86800F0A8F90346002B0DD0FB68A8
:1040D0001B6C042B07D1FB681B681A68FB681B6804
:1040E00042F400721A60012376E0FB88012B05D1AF
:1040F0003B89DAB2FB681B681A6121E03B891B0A25
:104100009BB2DAB2FB681B681A617A6A396AF8688E
:1041100000F082F90346002B0DD0FB681B6C042BCA
:1041200007D1FB681B681A68FB681B6842F40072C1
:104130001A60012350E03B89DAB2FB681B681A6100
:104140007A6A396AF86800F067F90346002B0DD0E7
:10415000FB681B6C042B07D1FB681B681A68FB68A3
:104160001B6842F400721A60012335E0FB681B688B
:104170001A68FB681B6842F480721A607B6A0093BD
:104180003B6A00224FF00111F86800F02BF803465B
:10419000002B0DD0FB681B681B6803F48073B3F51C
:1041A000807F03D1FB684FF400721A64032313E08D
:1041B0007B89DBB243F00103DAB2FB681B681A614A
:1041C0007B6A3A6A0649F86800F086F80346002BD5
:1041D00001D0012300E0002318461837BD4680BDFA
:1041E0000200010080B584B000AFF860B9603B60A8
:1041F0001346FB7148E03B68B3F1FF3F44D0FEF744
:10420000C7FF0246BB69D31A3A689A4202D33B6899
:10421000002B39D1BB681B0CDBB2012B0DD1FB6825
:104220001B685B69DA43BB6813409BB2002B0CBF71
:1042300001230023DBB21A460CE0FB681B689B6974
:10424000DA43BB6813409BB2002B0CBF0123002351
:10425000DBB21A46FB799A4216D1FB6800221A6338
:10426000FB68202283F83D20FB68002283F83E2073
:10427000FB681B6C43F02002FB681A64FB68002299
:1042800083F83C20012323E0BB681B0CDBB2012B2D
:104290000DD1FB681B685B69DA43BB6813409BB2B6
:1042A000002B0CBF01230023DBB21A460CE0FB6895
:1042B0001B689B69DA43BB6813409BB2002B0CBFA1
:1042C00001230023DBB21A46FB799A4293D00023E4
:1042D00018461037BD4680BD80B584B000AFF86089
:1042E000B9607A603B6071E0FB681B685B6903F44E
:1042F0008063B3F5806F23D1FB681B681A68FB6885
:104300001B6842F400721A60FB681B686FF48062DD
:104310005A61FB6800221A63FB68202283F83D2063
:10432000FB68002283F83E20FB681B6C43F004020C
:10433000FB681A64FB68002283F83C20012367E0D5
:104340007B68B3F1FF3F41D0FEF722FF02463B6896
:10435000D31A7A689A4202D37B68002B36D1BB68A5
:104360001B0CDBB2012B0CD1FB681B685B69DA43C9
:10437000BB6813409BB2002B14BF01230023DBB2A8
:104380000BE0FB681B689B69DA43BB6813409BB278
:10439000002B14BF01230023DBB2002B16D0FB68D7
:1043A00000221A63FB68202283F83D20FB6800226C
:1043B00083F83E20FB681B6C43F02002FB681A6404
:1043C000FB68002283F83C20012321E0BB681B0C22
:1043D000DBB2012B0CD1FB681B685B69DA43BB685D
:1043E00013409BB2002B14BF01230023DBB20BE070
:1043F000FB681B689B69DA43BB6813409BB2002BC8
:1044000014BF01230023DBB2002B7FF46DAF002328
:1044100018461037BD4680BD80B584B000AFF86047
:10442000B9607A6034E0F86800F09BF80346002B2E
:1044300001D0012334E0BB68B3F1FF3F28D0FEF781
:10444000A7FE02467B68D31ABA689A4202D3BB68B9
:10445000002B1DD1FB681B685B6903F08003802B78
:1044600016D0FB6800221A63FB68202283F83D20E7
:10447000FB68002283F83E20FB681B6C43F020029F
:10448000FB681A64FB68002283F83C20012307E0E4
:10449000FB681B685B6903F08003802BC3D100239A
:1044A00018461037BD4680BD80B584B000AFF860B7
:1044B000B9607A6049E0FB681B685B6903F0100330
:1044C000102B19D1FB681B686FF010025A61FB6852
:1044D00000221A63FB68202283F83D20FB6800223B
:1044E00083F83E20FB681A6CFB681A64FB680022A4
:1044F00083F83C20012330E0FEF74AFE02467B6849
:10450000D31ABA689A4202D3BB68002B1DD1FB684C
:104510001B685B6903F04003402B16D0FB68002248
:104520001A63FB68202283F83D20FB68002283F891
:104530003E20FB681B6C43F02002FB681A64FB689A
:10454000002283F83C20012307E0FB681B685B69BD
:1045500003F04003402BAED1002318461037BD4670
:1045600080BD80B483B000AF78607B681B685B69F6
:1045700003F48063B3F5806F1BD17B681B686FF415
:1045800080625A617B6800221A637B68202283F86C
:104590003D207B68002283F83E207B681B6C43F043
:1045A00004027B681A647B68002283F83C200123A4
:1045B00000E0002318460C37BD4680BC7047000061
:1045C00080B586B000AF78607B68002B01D10123F5
:1045D00072E27B681B6803F00103002B00F0878008
:1045E000924B5B6803F00C03042B0CD08F4B5B6881
:1045F00003F00C03082B12D18C4B5B6803F480335F
:10460000B3F5803F0BD1894B1B6803F40033002BBB
:104610006CD07B685B68002B68D101234CE27B681F
:104620005B68B3F5803F06D1804B1B687F4A43F43B
:10463000803313602EE07B685B68002B0CD17B4BD2
:104640001B687A4A23F480331360784B1B68774ADF
:1046500023F4802313601DE07B685B68B3F5A02F13
:104660000CD1724B1B68714A43F4802313606F4B6B
:104670001B686E4A43F4803313600BE06B4B1B687E
:104680006A4A23F480331360684B1B68674A23F43B
:10469000802313607B685B68002B13D0FEF778FDE6
:1046A000386108E0FEF774FD02463B69D31A642BBB
:1046B00001D9032300E25D4B1B6803F40033002B98
:1046C000F0D014E0FEF764FD386108E0FEF760FD0D
:1046D00002463B69D31A642B01D90323ECE1534B07
:1046E0001B6803F40033002BF0D100E000BF7B68AF
:1046F0001B6803F00203002B63D04C4B5B6803F094
:104700000C03002B0BD0494B5B6803F00C03082B08
:104710001CD1464B5B6803F48033002B16D1434B0E
:104720001B6803F00203002B05D07B681B69012B7B
:1047300001D00123C0E13D4B1B6823F0F8027B68E8
:104740005B69DB00394913430B603AE07B681B6906
:10475000002B20D0364B01221A60FEF719FD38617C
:1047600008E0FEF715FD02463B69D31A022B01D97A
:104770000323A1E12D4B1B6803F00203002BF0D0B3
:104780002A4B1B6823F0F8027B685B69DB00274932
:1047900013430B6015E0264B00221A60FEF7F8FC6D
:1047A000386108E0FEF7F4FC02463B69D31A022B9D
:1047B00001D9032380E11D4B1B6803F00203002B8A
:1047C000F0D17B681B6803F00803002B3AD07B68AC
:1047D0009B69002B19D0174B01221A60FEF7D8FCF9
:1047E000386108E0FEF7D4FC02463B69D31A022B7D
:1047F00001D9032360E10D4B5B6A03F00203002B38
:10480000F0D0012000F0CEFA1CE00A4B00221A6022
:10481000FEF7BEFC38610FE0FEF7BAFC02463B69CA
:10482000D31A022B08D9032346E100BF001002402F
:104830000000424280044242924B5B6A03F0020352
:10484000002BE9D17B681B6803F00403002B00F008
:10485000A6800023FB758B4BDB6903F08053002B94
:104860000DD1884BDB69874A43F08053D361854B78
:10487000DB6903F08053BB60BB680123FB75824B8F
:104880001B6803F48073002B18D17F4B1B687E4A92
:1048900043F480731360FEF77BFC386108E0FEF799
:1048A00077FC02463B69D31A642B01D9032303E149
:1048B000754B1B6803F48073002BF0D07B68DB68BA
:1048C000012B06D16F4B1B6A6E4A43F00103136242
:1048D0002DE07B68DB68002B0CD16A4B1B6A694AB0
:1048E00023F001031362674B1B6A664A23F004033B
:1048F00013621CE07B68DB68052B0CD1614B1B6AE3
:10490000604A43F0040313625E4B1B6A5D4A43F046
:10491000010313620BE05B4B1B6A5A4A23F001034D
:104920001362584B1B6A574A23F0040313627B68D7
:10493000DB68002B15D0FEF72BFC38610AE0FEF790
:1049400027FC02463B69D31A41F28832934201D9CF
:104950000323B1E04B4B1B6A03F00203002BEED0A4
:1049600014E0FEF715FC38610AE0FEF711FC024680
:104970003B69D31A41F28832934201D903239BE069
:10498000404B1B6A03F00203002BEED1FB7D012B91
:1049900005D13C4BDB693B4A23F08053D3617B68F4
:1049A000DB69002B00F08780364B5B6803F00C035B
:1049B000082B61D07B68DB69022B46D1334B002288
:1049C0001A60FEF7E5FB386108E0FEF7E1FB0246FE
:1049D0003B69D31A022B01D903236DE0294B1B68D5
:1049E00003F00073002BF0D17B681B6AB3F5803FA6
:1049F00008D1244B5B6823F400327B689B68214913
:104A000013434B601F4B5B6823F474127B68196A75
:104A10007B685B6A0B431B4913434B601B4B0122B2
:104A20001A60FEF7B5FB386108E0FEF7B1FB0246FD
:104A30003B69D31A022B01D903233DE0114B1B68BC
:104A400003F00073002BF0D035E0104B00221A6009
:104A5000FEF79EFB386108E0FEF79AFB02463B69D1
:104A6000D31A022B01D9032326E0064B1B6803F05F
:104A70000073002BF0D11EE07B68DB69012B07D1AE
:104A8000012319E000100240007000406000424223
:104A90000B4B5B68FB60FB6803F480327B681B6A2E
:104AA0009A4206D1FB6803F470127B685B6A9A42F3
:104AB00001D0012300E0002318461837BD4680BD11
:104AC0000010024080B584B000AF786039607B6828
:104AD000002B01D10123D0E06A4B1B6803F00703D0
:104AE0003A689A4210D9674B1B6823F00702654960
:104AF0003B6813430B60634B1B6803F007033A6882
:104B00009A4201D00123B8E07B681B6803F00203DE
:104B1000002B20D07B681B6803F00403002B05D01A
:104B2000594B5B68584A43F4E06353607B681B68E9
:104B300003F00803002B05D0534B5B68524A43F443
:104B400060535360504B5B6823F0F0027B689B68B6
:104B50004D4913434B607B681B6803F00103002B36
:104B600040D07B685B68012B07D1474B1B6803F47F
:104B70000033002B15D101237FE07B685B68022B9B
:104B800007D1414B1B6803F00073002B09D10123AF
:104B900073E03D4B1B6803F00203002B01D101239E
:104BA0006BE0394B5B6823F003027B685B68364936
:104BB00013434B60FEF7ECFAF8600AE0FEF7E8FA00
:104BC0000246FB68D31A41F28832934201D903238B
:104BD00053E02D4B5B6803F00C027B685B689B0025
:104BE0009A42EBD1274B1B6803F007033A689A42BD
:104BF00010D2244B1B6823F0070222493B68134361
:104C00000B60204B1B6803F007033A689A4201D0FF
:104C1000012332E07B681B6803F00403002B08D0FB
:104C2000194B5B6823F4E0627B68DB681649134329
:104C30004B607B681B6803F00803002B09D0124B04
:104C40005B6823F460527B681B69DB000E491343E9
:104C50004B6000F021F802460B4B5B681B0903F028
:104C60000F030A49CB5C22FA03F3094A1360094B8C
:104C70001B681846FEF74AFA002318461037BD464F
:104C800080BD00BF0020024000100240987C000858
:104C90000C0000201000002080B487B000AF00237B
:104CA000FB600023BB6000237B6100237B6000234B
:104CB0003B611E4B5B68FB60FB6803F00C03042B3D
:104CC00002D0082B03D027E0194B3B6127E0FB689B
:104CD0009B0C03F00F03174AD35C7B60FB6803F463
:104CE0008033002B10D0114B5B685B0C03F0010389
:104CF000114AD35CBB607B680D4A03FB02F2BB68C0
:104D0000B2FBF3F37B6104E07B680C4A02FB03F324
:104D10007B617B693B6102E0054B3B6100BF3B6906
:104D200018461C37BD4680BC704700BF00100240CB
:104D300000127A00B07C0008C07C000800093D0029
:104D400080B400AF024B1B681846BD4680BC70475C
:104D50000C00002080B500AFFFF7F2FF0246054BC4
:104D60005B681B0A03F007030349CB5C22FA03F3D9
:104D7000184680BD00100240A87C000880B500AF36
:104D8000FFF7DEFF0246054B5B68DB0A03F0070313
:104D90000349CB5C22FA03F3184680BD00100240A1
:104DA000A87C000880B485B000AF78600A4B1B680F
:104DB0000A4AA2FB03235B0A7A6802FB03F3FB6047
:104DC00000BFFB685A1EFA60002BF9D100BF00BF7C
:104DD0001437BD4680BC70470C000020D34D6210D4
:104DE00080B582B000AF78607B68002B01D10123D1
:104DF00076E07B685B6A002B08D17B685B68B3F563
:104E0000827F09D07B680022DA6105E07B6800229E
:104E10001A617B6800225A617B6800229A627B6873
:104E200093F85130DBB2002B06D17B68002283F867
:104E300050207868FDF770FE7B68022283F85120CD
:104E40007B681B681A687B681B6822F040021A6046
:104E50007B685B6803F482727B689B6803F404439D
:104E60001A437B68DB6803F400631A437B681B69A1
:104E700003F002031A437B685B6903F001031A43E2
:104E80007B689B6903F400731A437B68DB6903F05A
:104E900038031A437B681B6A03F0800342EA03016C
:104EA0007B689B6A03F400527B681B680A431A60A4
:104EB0007B689B691A0C7B681B6802F004025A60CD
:104EC0007B681B68DA697B681B6822F40062DA6120
:104ED0007B6800225A657B68012283F851200023F9
:104EE00018460837BD4680BD80B588B000AFF86071
:104EF000B9603B601346FB80FEF74AF9F861FB8816
:104F00007B83FB6893F85130DBB2012B01D0022385
:104F10002AE1BB68002B02D0FB88002B01D10123C2
:104F200022E1FB6893F85030012B01D102231BE1F1
:104F3000FB68012283F85020FB68032283F851208C
:104F4000FB6800225A65FB68BA681A63FB68FA8836
:104F50009A86FB68FA88DA86FB6800229A63FB6807
:104F600000229A87FB680022DA87FB6800225A64D5
:104F7000FB6800221A64FB689B68B3F5004F0FD1F1
:104F8000FB681B681A68FB681B6822F040021A6005
:104F9000FB681B681A68FB681B6842F480421A6051
:104FA000FB681B681B6803F04003402B07D0FB68BD
:104FB0001B681A68FB681B6842F040021A60FB68B5
:104FC000DB68B3F5006F52D1FB685B68002B02D041
:104FD0007B8B012B45D1FB681B6B1A88FB681B6818
:104FE000DA60FB681B6B9A1CFB681A63FB68DB8E3C
:104FF0009BB2013B9AB2FB68DA8632E0FB681B6821
:105000009B6803F00203022B12D1FB681B6B1A880A
:10501000FB681B68DA60FB681B6B9A1CFB681A63F1
:10502000FB68DB8E9BB2013B9AB2FB68DA8618E024
:10503000FEF7AEF80246FB69D31A3A689A4203D8E3
:105040003B68B3F1FF3F02D13B68002B09D1FB68FD
:10505000012283F85120FB68002283F850200323AB
:1050600082E0FB68DB8E9BB2002BC7D153E0FB686C
:105070005B68002B02D07B8B012B47D1FB681A6B3E
:10508000FB681B680C3312781A70FB681B6B5A1C88
:10509000FB681A63FB68DB8E9BB2013B9AB2FB682C
:1050A000DA8633E0FB681B689B6803F00203022B7F
:1050B00013D1FB681A6BFB681B680C3312781A70EB
:1050C000FB681B6B5A1CFB681A63FB68DB8E9BB288
:1050D000013B9AB2FB68DA8618E0FEF759F80246FF
:1050E000FB69D31A3A689A4203D83B68B3F1FF3F91
:1050F00002D13B68002B09D1FB68012283F85120C3
:10510000FB68002283F8502003232DE0FB68DB8E30
:105110009BB2002BC6D1FA693968F86800F0C4FB6D
:105120000346002B02D0FB6820225A65FB689B686F
:10513000002B0AD100237B61FB681B68DB687B6165
:10514000FB681B689B687B617B69FB68012283F8B5
:105150005120FB68002283F85020FB685B6D002B18
:1051600001D0012300E0002318462037BD4680BD52
:1051700080B588B002AFF860B9603B601346FB8031
:10518000FB6893F85130DBB2012B01D0022304E11C
:10519000FB685B68B3F5827F12D1FB689B68002BCC
:1051A0000ED1FB68042283F85120FA883B680093F3
:1051B0001346BA68B968F86800F0F3F80346ECE003
:1051C000FDF7E6FF7861BB68002B02D0FB88002B5F
:1051D00001D10123E1E0FB6893F85030012B01D1AC
:1051E0000223DAE0FB68012283F85020FB680422E6
:1051F00083F85120FB6800225A65FB68BA689A63FD
:10520000FB68FA889A87FB68FA88DA87FB680022CD
:105210001A63FB6800229A86FB680022DA86FB6824
:1052200000221A64FB6800225A64FB689B68B3F58D
:10523000004F0FD1FB681B681A68FB681B6822F0DF
:1052400040021A60FB681B681A68FB681B6822F43E
:1052500080421A60FB681B681B6803F04003402B08
:1052600007D0FB681B681A68FB681B6842F04002A5
:105270001A60FB68DB68002B70D135E0FB681B68A7
:105280009B6803F00103012B15D1FB681B6803F138
:105290000C02FB689B6B1278D2B21A70FB689B6B96
:1052A0005A1CFB689A63FB68DB8F9BB2013B9AB286
:1052B000FB68DA8718E0FDF76BFF02467B69D31ABB
:1052C0003A689A4203D83B68B3F1FF3F02D13B688A
:1052D000002B09D1FB68012283F85120FB680022D2
:1052E00083F85020032358E0FB68DB8F9BB2002B30
:1052F000C4D138E0FB681B689B6803F00103012BF5
:1053000013D1FB681B68DA68FB689B6B92B21A804A
:10531000FB689B6B9A1CFB689A63FB68DB8F9BB2F4
:10532000013B9AB2FB68DA8718E0FDF731FF0246CD
:105330007B69D31A3A689A4203D83B68B3F1FF3FBE
:1053400002D13B68002B09D1FB68012283F8512070
:10535000FB68002283F8502003231EE0FB68DB8FEC
:105360009BB2002BC6D17A693968F86800F04AFA16
:105370000346002B02D0FB6820225A65FB680122FD
:1053800083F85120FB68002283F85020FB685B6D96
:10539000002B01D0012300E0002318461837BD463A
:1053A00080BD80B58AB000AFF860B9607A607B805C
:1053B00001237B62FDF7ECFE3862FB6893F8513005
:1053C000FB77FB685B68BB617B88FB82FB7F012B03
:1053D0000CD0BB69B3F5827F06D1FB689B68002BBC
:1053E00002D1FB7F042B01D002237FE1BB68002B9D
:1053F00005D07B68002B02D07B88002B01D10123D4
:1054000074E1FB6893F85030012B01D102236DE168
:10541000FB68012283F85020FB6893F85130DBB21F
:10542000042B03D0FB68052283F85120FB6800227F
:105430005A65FB687A689A63FB687A88DA87FB6842
:105440007A889A87FB68BA681A63FB687A88DA8672
:10545000FB687A889A86FB6800221A64FB6800223F
:105460005A64FB681B681B6803F04003402B07D09D
:10547000FB681B681A68FB681B6842F040021A60F0
:10548000FB68DB68B3F5006F7ED1FB685B68002BBF
:1054900002D0FB8A012B6CD1FB681B6B1A88FB685E
:1054A0001B68DA60FB681B6B9A1CFB681A63FB685D
:1054B000DB8E9BB2013B9AB2FB68DA8659E0FB684F
:1054C0001B689B6803F00203022B1BD1FB68DB8E79
:1054D0009BB2002B16D07B6A012B13D1FB681B6B90
:1054E0001A88FB681B68DA60FB681B6B9A1CFB68F8
:1054F0001A63FB68DB8E9BB2013B9AB2FB68DA86CB
:1055000000237B62FB681B689B6803F00103012B8F
:1055100019D1FB68DB8F9BB2002B14D0FB681B6892
:10552000DA68FB689B6B92B21A80FB689B6B9A1CD3
:10553000FB689A63FB68DB8F9BB2013B9AB2FB6806
:10554000DA8701237B62FDF723FE02463B6AD31A0A
:105550003A6B9A420DD83B6BB3F1FF3F09D0FB6821
:10556000012283F85120FB68002283F85020032396
:10557000BCE0FB68DB8E9BB2002BA0D1FB68DB8F0D
:105580009BB2002B9BD182E0FB685B68002B02D0B2
:10559000FB8A012B71D1FB681A6BFB681B680C330B
:1055A00012781A70FB681B6B5A1CFB681A63FB6845
:1055B000DB8E9BB2013B9AB2FB68DA865DE0FB684A
:1055C0001B689B6803F00203022B1CD1FB68DB8E77
:1055D0009BB2002B17D07B6A012B14D1FB681A6B8E
:1055E000FB681B680C3312781A70FB681B6B5A1C23
:1055F000FB681A63FB68DB8E9BB2013B9AB2FB68C7
:10560000DA8600237B62FB681B689B6803F001035A
:10561000012B19D1FB68DB8F9BB2002B14D0FB68E8
:105620001B68DA68FB689B6BD2B21A70FB689B6BD5
:105630005A1CFB689A63FB68DB8F9BB2013B9AB2F2
:10564000FB68DA8701237B62FDF7A2FD02463B6A15
:10565000D31A3A6B9A4203D83B6BB3F1FF3F02D1A6
:105660003B6B002B09D1FB68012283F85120FB68BA
:10567000002283F85020032338E0FB68DB8E9BB2C6
:10568000002B9CD1FB68DB8F9BB2002B97D13A6A31
:10569000396BF86800F008F90346002B08D0FB6866
:1056A00020225A65FB68002283F8502001231DE068
:1056B000FB689B68002B0AD100233B61FB681B68D9
:1056C000DB683B61FB681B689B683B613B69FB686F
:1056D000012283F85120FB68002283F85020FB68E8
:1056E0005B6D002B01D0012300E000231846283712
:1056F000BD4680BD80B588B000AFF860B9603B6042
:105700001346FB71FDF744FD0246BB6A9B1A3A68DB
:105710001344FB61FDF73CFDB861394B1B685B012D
:105720001B0DFA6902FB03F37B6154E03B68B3F1A4
:10573000FF3F50D0FDF72CFD0246BB69D31AFA6932
:105740009A4202D9FB69002B3DD1FB681B685A685D
:10575000FB681B6822F0E0025A60FB685B68B3F5E7
:10576000827F11D1FB689B68B3F5004F04D0FB68C2
:105770009B68B3F5806F07D1FB681B681A68FB68EC
:105780001B6822F040021A60FB689B6AB3F5005F59
:105790000FD1FB681B681A68FB681B6822F4005273
:1057A0001A60FB681B681A68FB681B6842F40052A9
:1057B0001A60FB68012283F85120FB68002283F8FD
:1057C0005020032317E07B69002B01D10023FB61EC
:1057D0007B69013B7B61FB681B689A68BB6813406F
:1057E000BA689A420CBF01230023DBB21A46FB7948
:1057F0009A429BD1002318462037BD4680BD00BF8A
:105800000C00002080B586B002AFF860B9607A6005
:10581000FB685B68B3F5827F11D1FB689B68B3F5C9
:10582000004F04D0FB689B68B3F5806F07D1FB681D
:105830001B681A68FB681B6822F040021A60FB684C
:105840005B68B3F5827F17D1FB689B68B3F5806F07
:1058500012D17B680093BB6800220121F868FFF732
:1058600049FF0346002B1AD0FB685B6D43F0200212
:10587000FB685A65032313E07B680093BB68002232
:105880008021F868FFF736FF0346002B07D0FB683E
:105890005B6D43F02002FB685A65032300E00023A0
:1058A00018461037BD4680BD80B586B002AFF8609F
:1058B000B9607A607B680093BB6801220221F868B6
:1058C000FFF718FF0346002B07D0FB685B6D43F022
:1058D0002002FB685A65032313E07B680093BB68D2
:1058E00000228021F868FFF705FF0346002B07D050
:1058F000FB685B6D43F02002FB685A65032300E000
:10590000002318461037BD4680BD80B582B000AF79
:1059100078607B68002B01D1012341E07B6893F81C
:105920003D30DBB2002B06D17B68002283F83C209F
:105930007868FDF777F97B68022283F83D207B6861
:105940001A687B6804331946104600F069FC7B68CE
:10595000012283F846207B68012283F83E207B6881
:10596000012283F83F207B68012283F840207B6876
:10597000012283F841207B68012283F842207B6862
:10598000012283F843207B68012283F844207B684E
:10599000012283F845207B68012283F83D20002303
:1059A00018460837BD4680BD80B485B000AF78602A
:1059B0007B6893F83D30DBB2012B01D0012332E04C
:1059C0007B68022283F83D207B681B68184A93425B
:1059D0000ED07B681B68B3F1804F09D07B681B68D1
:1059E000144A934204D07B681B68134A934211D136
:1059F0007B681B689B6803F00703FB60FB68062B52
:105A000010D07B681B681A687B681B6842F0010233
:105A10001A6007E07B681B681A687B681B6842F0A5
:105A200001021A60002318461437BD4680BC704737
:105A3000002C0140000400400008004080B485B004
:105A400000AF78607B6893F83D30DBB2012B01D06A
:105A500001233AE07B68022283F83D207B681B68C3
:105A6000DA687B681B6842F00102DA607B681B68B9
:105A7000184A93420ED07B681B68B3F1804F09D05F
:105A80007B681B68144A934204D07B681B68134AE6
:105A9000934211D17B681B689B6803F00703FB608E
:105AA000FB68062B10D07B681B681A687B681B6834
:105AB00042F001021A6007E07B681B681A687B6885
:105AC0001B6842F001021A60002318461437BD46D5
:105AD00080BC7047002C01400004004000080040DA
