:020000040800F2
:1000000000500020513600086D320008753200089B
:100010007D320008853200088D32000800000000A3
:100020000000000000000000000000009532000801
:10003000A132000800000000AD320008B93200080B
:100040009936000899360008993600089936000854
:100050009936000899360008993600089936000844
:100060009936000899360008993600089936000834
:100070009936000899360008993600089936000824
:100080009936000899360008993600089936000814
:100090009936000899360008993600089936000804
:1000A00099360008993600089936000899360008F4
:1000B00099360008C53200089936000899360008BC
:1000C0009936000899360008DD3200089936000894
:1000D00099360008FD320008C53500089936000839
:1000E000993600089936000899360008000000008B
:1000F0000000000000000000000000000000000000
:0C01000000000000000000005FF808F1A3
:1001100010B5054C237833B9044B13B10448AFF341
:1001200000800123237010BD840000200000000027
:10013000888B000808B5034B1BB103490348AFF394
:10014000008008BD0000000088000020888B0008A7
:1001500081F0004102E000BF83F0004330B54FEA78
:1001600041044FEA430594EA050F08BF90EA020FE5
:100170001FBF54EA000C55EA020C7FEA645C7FEA78
:10018000655C00F0E2804FEA5454D4EB5555B8BF9B
:100190006D420CDD2C4480EA020281EA030382EA0C
:1001A000000083EA010180EA020281EA0303362D9E
:1001B00088BF30BD11F0004F4FEA01314FF4801C71
:1001C0004CEA113102D0404261EB410113F0004F83
:1001D0004FEA03334CEA133302D0524263EB43033A
:1001E00094EA050F00F0A780A4F10104D5F1200ED8
:1001F0000DDB02FA0EFC22FA05F2801841F1000133
:1002000003FA0EF2801843FA05F359410EE0A5F106
:1002100020050EF1200E012A03FA0EFC28BF4CF037
:10022000020C43FA05F3C01851EBE37101F00045ED
:1002300007D54FF0000EDCF1000C7EEB00006EEBFA
:100240000101B1F5801F1BD3B1F5001F0CD3490884
:100250005FEA30004FEA3C0C04F101044FEA4452DB
:1002600012F5800F80F09A80BCF1004F08BF5FEA62
:10027000500C50F1000041EB045141EA050130BD42
:100280005FEA4C0C404141EB0101013C28BFB1F554
:10029000801FE9D291F0000F04BF01460020B1FA9F
:1002A00081F308BF2033A3F10B03B3F120020CDA72
:1002B0000C3208DD02F1140CC2F10C0201FA0CF050
:1002C00021FA02F10CE002F11402D8BFC2F1200CB5
:1002D00001FA02F120FA0CFCDCBF41EA0C0190406B
:1002E000E41AA2BF01EB0451294330BD6FEA0404B4
:1002F0001F3C1CDA0C340EDC04F11404C4F120029F
:1003000020FA04F001FA02F340EA030021FA04F3B0
:1003100045EA030130BDC4F10C04C4F1200220FA07
:1003200002F001FA04F340EA0300294630BD21FA45
:1003300004F0294630BD94F0000F83F4801306BF0B
:1003400081F480110134013D4EE77FEA645C18BFFF
:100350007FEA655C29D094EA050F08BF90EA020F96
:1003600005D054EA000C04BF1946104630BD91EA8E
:10037000030F1EBF0021002030BD5FEA545C05D191
:100380004000494128BF41F0004130BD14F58004D0
:100390003CBF01F5801130BD01F0004545F0FE4144
:1003A00041F470014FF0000030BD7FEA645C1ABF79
:1003B000194610467FEA655C1CBF0B46024650EAB0
:1003C000013406BF52EA033591EA030F41F40021DC
:1003D00030BD00BF90F0000F04BF0021704730B562
:1003E0004FF4806404F132044FF000054FF0000137
:1003F00050E700BF90F0000F04BF0021704730B5F8
:100400004FF4806404F1320410F0004548BF4042CC
:100410004FF000013EE700BF42004FEAE2014FEA21
:1004200031014FEA02701FBF12F07F4393F07F4FFC
:1004300081F06051704732F07F4208BF704793F0FF
:100440007F4F04BF41F40021704730B54FF4607412
:1004500001F0004521F000411CE700BF50EA010215
:1004600008BF704730B54FF000050AE050EA0102BE
:1004700008BF704730B511F0004502D5404261EB2E
:1004800041014FF4806404F132045FEA915C3FF46F
:10049000D8AE4FF003025FEADC0C18BF03325FEA0C
:1004A000DC0C18BF033202EBDC02C2F1200300FABD
:1004B00003FC20FA02F001FA03FE40EA0E0021FAE2
:1004C00002F11444BDE600BF70B54FF0FF0C4CF4D0
:1004D000E06C1CEA11541DBF1CEA135594EA0C0F82
:1004E00095EA0C0F00F0DEF82C4481EA030621EABD
:1004F0004C5123EA4C5350EA013518BF52EA0335F8
:1005000041F4801143F4801338D0A0FB02CE4FF0A9
:100510000005E1FB02E506F00042E0FB03E54FF0D9
:100520000006E1FB03569CF0000F18BF4EF0010ED1
:10053000A4F1FF04B6F5007F64F5407404D25FEACD
:100540004E0E6D4146EB060642EAC62141EA555180
:100550004FEAC52040EA5E504FEACE2EB4F1FD0CC2
:1005600088BFBCF5E06F1ED8BEF1004F08BF5FEA40
:10057000500E50F1000041EB045170BD06F00046F2
:1005800046EA010140EA020081EA0301B4EB5C049F
:10059000C2BFD4EB0C0541EA045170BD41F4801197
:1005A0004FF0000E013C00F3AB8014F1360FDEBFBC
:1005B000002001F0004170BDC4F10004203C35DA98
:1005C0000C341BDC04F11404C4F1200500FA05F31B
:1005D00020FA04F001FA05F240EA020001F00042BC
:1005E00021F0004110EBD37021FA04F642EB060132
:1005F0005EEA430E08BF20EAD37070BDC4F10C045C
:10060000C4F1200500FA04F320FA05F001FA04F21F
:1006100040EA020001F0004110EBD37041F100010B
:100620005EEA430E08BF20EAD37070BDC4F1200516
:1006300000FA05F24EEA020E20FA04F301FA05F27E
:1006400043EA020321FA04F001F0004121FA04F226
:1006500020EA020000EBD3705EEA430E08BF20EAF6
:10066000D37070BD94F0000F0FD101F00046400030
:1006700041EB010111F4801F08BF013CF7D041EAB2
:10068000060195F0000F18BF704703F000465200B6
:1006900043EB030313F4801F08BF013DF7D043EA87
:1006A0000603704794EA0C0F0CEA135518BF95EA3D
:1006B0000C0F0CD050EA410618BF52EA4306D1D1C4
:1006C00081EA030101F000414FF0000070BD50EAE3
:1006D000410606BF1046194652EA430619D094EA6D
:1006E0000C0F02D150EA013613D195EA0C0F05D157
:1006F00052EA03361CBF104619460AD181EA0301AB
:1007000001F0004141F0FE4141F470014FF0000062
:1007100070BD41F0FE4141F4780170BD70B54FF0FD
:10072000FF0C4CF4E06C1CEA11541DBF1CEA13557D
:1007300094EA0C0F95EA0C0F00F0A7F8A4EB05045F
:1007400081EA030E52EA03354FEA013100F0888056
:100750004FEA03334FF0805545EA131343EA12631F
:100760004FEA022245EA111545EA10654FEA0026D4
:100770000EF000419D4208BF964244F1FD0404F58D
:10078000407402D25B084FEA3202B61A65EB0305E9
:100790005B084FEA32024FF480104FF4002CB6EBA6
:1007A000020E75EB030E22BFB61A754640EA0C0026
:1007B0005B084FEA3202B6EB020E75EB030E22BF66
:1007C000B61A754640EA5C005B084FEA3202B6EBA7
:1007D000020E75EB030E22BFB61A754640EA9C0066
:1007E0005B084FEA3202B6EB020E75EB030E22BF36
:1007F000B61A754640EADC0055EA060E18D04FEAF4
:10080000051545EA16754FEA06164FEAC30343EA93
:1008100052734FEAC2025FEA1C1CC0D111F4801F60
:100820000BD141EA00014FF000004FF0004CB6E759
:1008300011F4801F04BF01430020B4F1FD0C88BFF8
:10084000BCF5E06F3FF6AFAEB5EB030C04BFB6EB03
:10085000020C5FEA500C50F1000041EB045170BDF6
:100860000EF0004E4EEA113114EB5C04C2BFD4EB23
:100870000C0541EA045170BD41F480114FF0000EA7
:10088000013C90E645EA060E8DE60CEA135594EA23
:100890000C0F08BF95EA0C0F3FF43BAF94EA0C0F26
:1008A0000AD150EA01347FF434AF95EA0C0F7FF49B
:1008B00025AF104619462CE795EA0C0F06D152EAEF
:1008C00003353FF4FDAE1046194622E750EA4106D3
:1008D00018BF52EA43067FF4C5AE50EA41047FF4E4
:1008E0000DAF52EA43057FF4EBAE12E74FF0FF3C49
:1008F00006E000BF4FF0010C02E000BF4FF0010C1A
:100900004DF804CD4FEA410C7FEA6C5C4FEA430C92
:1009100018BF7FEA6C5C1BD001B050EA410C0CBFE1
:1009200052EA430C91EA030F02BF90EA020F002043
:10093000704710F1000F91EA030F58BF994208BFAA
:1009400090422CBFD8176FEAE37040F00100704767
:100950004FEA410C7FEA6C5C02D150EA013C07D1BE
:100960004FEA430C7FEA6C5CD6D152EA033CD3D009
:100970005DF8040B704700BF8446104662468C4603
:100980001946634600E000BF01B5FFF7B7FF002836
:1009900048BF10F1000F01BD4DF808EDFFF7F4FF5F
:1009A0000CBF012000205DF808FB00BF4DF808EDEA
:1009B000FFF7EAFF34BF012000205DF808FB00BF0D
:1009C0004DF808EDFFF7E0FF94BF012000205DF82F
:1009D00008FB00BF4DF808EDFFF7CEFF94BF0120E4
:1009E00000205DF808FB00BF4DF808EDFFF7C4FFDD
:1009F00034BF012000205DF808FB00BF4FEA410C26
:100A00007FEA6C5C02D150EA013C0AD14FEA430C08
:100A10007FEA6C5C02D152EA033C02D14FF0000045
:100A200070474FF0010070474FEA4102B2F1E043D6
:100A300024BFB3F5001CDCF1FE5C0DD901F0004CC5
:100A40004FEAC0024CEA5070B2F1004F40EB830015
:100A500008BF20F00100704711F0804F21D113F141
:100A60003872BCBF01F00040704741F480114FEA7A
:100A70005252C2F11802C2F1200C10FA0CF320FA03
:100A800002F018BF40F001004FEAC1234FEAD32320
:100A900003FA0CFC40EA0C0023FA02F34FEA43038A
:100AA000CCE77FEA625307D150EA01331EBF4FF013
:100AB000FE4040F44000704701F0004040F0FE402E
:100AC00040F40000704700BF80F0004002E000BF2B
:100AD00081F0004142001FBF5FEA410392EA030F29
:100AE0007FEA226C7FEA236C6AD04FEA1262D2EB73
:100AF0001363C1BFD218414048404140B8BF5B4278
:100B0000192B88BF704710F0004F40F4000020F010
:100B10007F4018BF404211F0004F41F4000121F026
:100B20007F4118BF494292EA030F3FD0A2F1010270
:100B300041FA03FC10EB0C00C3F1200301FA03F1AE
:100B400000F0004302D5494260EB4000B0F5000FD1
:100B500013D3B0F1807F06D340084FEA310102F190
:100B60000102FE2A51D2B1F1004F40EBC25008BF42
:100B700020F0010040EA03007047490040EB00000C
:100B8000013A28BFB0F5000FEDD2B0FA80FCACF10D
:100B9000080CB2EB0C0200FA0CF0AABF00EBC2503A
:100BA00052421843BCBFD0401843704792F0000F28
:100BB00081F4000106BF80F400000132013BB5E77B
:100BC0004FEA41037FEA226C18BF7FEA236C21D0F1
:100BD00092EA030F04D092F0000F08BF0846704756
:100BE00090EA010F1CBF0020704712F07F4F04D124
:100BF000400028BF40F00040704712F100723CBF37
:100C000000F50000704700F0004343F0FE4040F460
:100C1000000070477FEA226216BF08467FEA23631E
:100C20000146420206BF5FEA412390EA010F40F409
:100C3000800070474FF0000304E000BF10F0004355
:100C400048BF40425FEA000C08BF704743F096433C
:100C500001464FF000001CE050EA010208BF704757
:100C60004FF000030AE000BF50EA010208BF7047DE
:100C700011F0004302D5404261EB41015FEA010CF3
:100C800002BF84460146002043F0B64308BFA3F1EB
:100C90008053A3F50003BCFA8CF2083AA3EBC253CD
:100CA00010DB01FA02FC634400FA02FCC2F12002EC
:100CB000BCF1004F20FA02F243EB020008BF20F023
:100CC0000100704702F1200201FA02FCC2F1200289
:100CD00050EA4C0021FA02F243EB020008BF20EA7E
:100CE000DC7070474FF0FF0C1CEAD0521EBF1CEAAC
:100CF000D15392EA0C0F93EA0C0F6FD01A4480EA9A
:100D0000010C400218BF5FEA41211ED04FF0006382
:100D100043EA501043EA5111A0FB01310CF00040AE
:100D2000B1F5000F3EBF490041EAD3715B0040EAD4
:100D3000010062F17F02FD2A1DD8B3F1004F40EBA4
:100D4000C25008BF20F00100704790F0000F0CF077
:100D5000004C08BF49024CEA502040EA51207F3A3B
:100D6000C2BFD2F1FF0340EAC250704740F4000016
:100D70004FF00003013A5DDC12F1190FDCBF00F007
:100D800000407047C2F10002410021FA02F1C2F1B5
:100D9000200200FA02FC5FEA310040F1000053EA51
:100DA0004C0308BF20EADC70704792F0000F00F09F
:100DB000004C02BF400010F4000F013AF9D040EAA5
:100DC0000C0093F0000F01F0004C02BF490011F439
:100DD000000F013BF9D041EA0C018FE70CEAD15337
:100DE00092EA0C0F18BF93EA0C0F0AD030F0004CB7
:100DF00018BF31F0004CD8D180EA010000F000406B
:100E0000704790F0000F17BF90F0004F084691F028
:100E1000000F91F0004F14D092EA0C0F01D1420262
:100E20000FD193EA0C0F03D14B0218BF084608D12B
:100E300080EA010000F0004040F0FE4040F4000075
:100E4000704740F0FE4040F4400070474FF0FF0C08
:100E50001CEAD0521EBF1CEAD15392EA0C0F93EA4F
:100E60000C0F69D0A2EB030280EA010C49024FEAA1
:100E7000402037D04FF0805343EA111143EA10135A
:100E80000CF000408B4238BF5B0042F17D024FF412
:100E9000000C8B4224BF5B1A40EA0C00B3EB510FED
:100EA00024BFA3EB510340EA5C00B3EB910F24BFD6
:100EB000A3EB910340EA9C00B3EBD10F24BFA3EB5B
:100EC000D10340EADC001B0118BF5FEA1C1CE0D123
:100ED000FD2A3FF650AF8B4240EBC25008BF20F0D6
:100EE000010070470CF0004C4CEA50207F32C2BF2A
:100EF000D2F1FF0340EAC250704740F400004FF0C7
:100F00000003013A37E792F0000F00F0004C02BFF7
:100F1000400010F4000F013AF9D040EA0C0093F0C1
:100F2000000F01F0004C02BF490011F4000F013B1B
:100F3000F9D041EA0C0195E70CEAD15392EA0C0F83
:100F400008D142027FF47DAF93EA0C0F7FF470AFBB
:100F5000084676E793EA0C0F04D14B023FF44CAFFE
:100F600008466EE730F0004C18BF31F0004CCAD193
:100F700030F000427FF45CAF31F000437FF43CAFCF
:100F80005FE700BF4FF0FF3C06E000BF4FF0010CF1
:100F900002E000BF4FF0010C4DF804CD4FEA4002D3
:100FA0004FEA41037FEA226C18BF7FEA236C11D01D
:100FB00001B052EA530C18BF90EA010F58BFB2EBD0
:100FC000030088BFC81738BF6FEAE17018BF40F050
:100FD000010070477FEA226C02D15FEA402C05D104
:100FE0007FEA236CE4D15FEA412CE1D05DF8040B89
:100FF000704700BF844608466146FFE70FB5FFF71C
:10100000C9FF002848BF10F1000F0FBD4DF808EDD3
:10101000FFF7F4FF0CBF012000205DF808FB00BFC4
:101020004DF808EDFFF7EAFF34BF012000205DF81E
:1010300008FB00BF4DF808EDFFF7E0FF94BF01206B
:1010400000205DF808FB00BF4DF808EDFFF7D2FF68
:1010500094BF012000205DF808FB00BF4DF808EDAB
:10106000FFF7C8FF34BF012000205DF808FB00BF78
:101070004FEA4002B2F1FE4F0FD34FF09E03B3EBA5
:1010800012620DD94FEA002343F0004310F0004FE5
:1010900023FA02F018BF404270474FF0000070473B
:1010A00012F1610F01D1420205D110F0004008BFDA
:1010B0006FF0004070474FF00000704742000ED2C2
:1010C000B2F1FE4F0BD34FF09E03B3EB126209D483
:1010D0004FEA002343F0004323FA02F070474FF039
:1010E0000000704712F1610F01D1420202D14FF0AE
:1010F000FF3070474FF00000704700BF80B400AF72
:1011000000BFBD4680BC704780B500AFFFF7F6FF5B
:1011100000221021024802F079FF00BF80BD00BF0D
:101120000008014080B500AF01221021024802F002
:101130006DFF00BF80BD00BF0008014080B586B0D4
:1011400002AF0346FB710023FB7307F10F02F91D89
:101150004FF4805300930123064805F0A6F8034698
:10116000002B01D0FF2300E0FB7B18461037BD4663
:1011700080BD00BFAC01002080B582B000AF7860B8
:101180000B46FB7013463B80FFF7BEFFFB7818460B
:10119000FFF7D4FF0AE07B681B781846FFF7CEFF05
:1011A0003B88013B3B807B6801337B603B88002BA5
:1011B000F1D1FFF7B7FF00BF0837BD4680BD000083
:1011C00080B584B000AF78600B46FB7013463B805F
:1011D000FFF79AFF8022FB781343DBB2FB7307F122
:1011E0000F014FF0FF330122074804F001FE3A8857
:1011F0004FF0FF337968044804F03EFFFFF792FF99
:1012000000BF1037BD4680BDAC01002080B582B064
:1012100000AF03460A46FB711346BB71F979BB1D4B
:1012200001221846FFF7A8FF0A2002F099FA00BF32
:101230000837BD4680BD80B582B000AF03463A6036
:10124000FB710B46BB71BB799AB2FB7919463868C2
:10125000FFF7B6FF00BF0837BD4680BD80B582B03E
:1012600000AF03460A46FB711346BB7125230C22CF
:1012700011461846FFF7CAFF2622FB791946104689
:10128000FFF7C4FF6322BB7919461046FFF7BEFF84
:101290002722802343F00103DBB219461046FFF7F3
:1012A000B5FF00BF0837BD4680BD80B582B000AF36
:1012B00003463A60FB710B46BB7125200C2280234C
:1012C0001343DBB21946FFF7A1FF2622FB7919462B
:1012D0001046FFF79BFF27208022BB791343DBB228
:1012E0001946FFF793FF012002F03AFA4920BB7933
:1012F0003A681946FFF79FFF00BF0837BD4680BD1B
:1013000080B500AF7523044A01211846FFF793FF0B
:10131000014B1B78184680BDA000002080B500AFAF
:101320000023044A01211846FFF7BFFF014B1B7839
:10133000184680BDA000002080B582B000AF6B23AE
:10134000012211461846FFF761FF6A232022114649
:101350001846FFF75BFF24230D2211461846FFF7BE
:1013600055FF0A23002211461846FFF777FF6B232B
:10137000802211461846FFF749FF0A2002F0F0F9D3
:101380000B23012211461846FFF768FF6B23012249
:1013900011461846FFF73AFFFFF7B2FF0346FB710D
:1013A000FB79712B04D0FB79732B01D001236CE006
:1013B0006C23002211461846FFF728FF1C23182231
:1013C00011461846FFF722FF1B230022114618463C
:1013D000FFF71CFF1D23012211461846FFF716FFD9
:1013E0001A23012211461846FFF710FF1923002186
:1013F0001846FFF70BFF6A23202211461846FFF715
:1014000005FF24230D2211461846FFF7FFFEFFF7C4
:1014100085FF0346482B01D0012336E00A23002232
:1014200011461846FFF71AFF642002F099F90A23C3
:101430000F2211461846FFF711FF642002F090F9C1
:101440001023144A03211846FFF72FFF0A23002216
:1014500011461846FFF702FF642002F081F90A23C3
:10146000162211461846FFF7F9FE642002F078F9BB
:101470006B23012211461846FFF7C8FE0323064AD4
:1014800007211846FFF711FF002318460837BD460D
:1014900080BD00BFB8000020A000002090B587B03C
:1014A00000AFF860B9607A603B23734A1521184693
:1014B000FFF7C1FE704B1B781BB21B021AB26E4BBA
:1014C0005B781BB213431AB2FB681A806A4B9B7895
:1014D0001BB21B0219B2684BDB781AB2FB680233ED
:1014E0000A4312B21A80644B1B791BB21B0219B259
:1014F000614B5B791AB2FB6804330A4312B21A805B
:101500005D4B1B7A1BB21B021AB25B4B5B7A1BB2A0
:1015100013431AB27B681A80574B9B7A1BB21B028B
:1015200019B2554BDB7A1AB27B6802330A4312B206
:101530001A80514B1B7B1BB21B0219B24E4B5B7BBB
:101540001AB27B6804330A4312B21A804A4BDB7B1F
:101550001BB21B021AB2484B9B7B1BB21343FB828C
:10156000454B5B7C1BB21B021AB2434B1B7C1BB26C
:101570001343BB82404BDB7C1BB21B021AB23E4BB7
:101580009B7C1BB213437B82B7F916301846FFF7DA
:1015900055FB0446394B1B78803B1846FFF74EFB42
:1015A00003464FF087411846FFF750FC03464FF0C3
:1015B0007E511846FFF78EFA034619462046FFF77C
:1015C00091FB03461846FFF753FD03461AB2BB686A
:1015D0001A80B7F914301846FFF730FB0446274B42
:1015E0005B78803B1846FFF729FB03464FF08741A5
:1015F0001846FFF72BFC03464FF07E511846FFF7C5
:1016000069FA034619462046FFF76CFB03461A4663
:10161000BB689C1C1046FFF72BFD03461BB22380C2
:10162000B7F912301846FFF709FB0446134B9B78B5
:10163000803B1846FFF702FB03464FF087411846F0
:10164000FFF704FC03464FF07E511846FFF742FABD
:10165000034619462046FFF745FB03461A46BB687A
:101660001C1D1046FFF704FD03461BB2238000BF7C
:101670001C37BD4690BD00BFA0000020B800002070
:1016800080B588B004AF0346FB7100233B814FF067
:101690000003FB60FB79022B0CD101230293022390
:1016A000019307F108030093012303220C2114483E
:1016B00002F04CFEFB79012B0CD101230293022393
:1016C000019307F108030093012303220C210D4825
:1016D00002F03CFE3B7A9B017A7A9208D2B2134325
:1016E0001846FFF7ABFA03464FF08D411846FFF757
:1016F000ADFB0346FB60FB6818461037BD4680BD56
:101700004C010020F800002080B584B000AF8A4B67
:101710001B68FB600120FFF7B3FFB8604FF00003C8
:101720007B60F968B868FFF771FC0346002B04D0B2
:10173000824B4FF000021A6095E0F968B868FFF735
:101740006FFC0346002B47D0B968F868FFF7C0F973
:1017500003464FF07C511846FFF780FC0346002BF0
:1017600021D0F9684FF07E50FFF7B2F903461946D1
:10177000B868FFF7AFF903467B60714B1B68796867
:101780001846FFF7A5F903461A466D4B1A607B68A9
:1017900083F000436B491846FFF758FB03461A468F
:1017A000664B1A605FE0B968F868FFF791F9034685
:1017B0007B60634B1B6879681846FFF78BF903461B
:1017C0001A465F4B1A605F497868FFF73FFB034694
:1017D0001A465A4B1A6046E0F968B868FFF778F97C
:1017E00003464FF07C511846FFF738FC0346002BA8
:1017F0001ED0B9684FF07E50FFF76AF903461946CC
:10180000F868FFF767F903467B604D4B1B68796802
:101810001846FFF75FF903461A46494B1A604949D3
:101820007868FFF713FB03461A46444B1A601AE028
:10183000F968B868FFF74CF903467B60404B1B68BA
:1018400079681846FFF744F903461A463C4B1A607C
:101850007B6883F000433B491846FFF7F7FA0346DD
:101860001A46364B1A60344ABB681360364B1B6805
:10187000FB600220FFF704FFB8604FF000037B60BD
:10188000F968B868FFF7C2FB0346002B04D02F4B62
:101890004FF000021A60A4E0F968B868FFF7C0FBD7
:1018A0000346002B56D0B968F868FFF711F90346D4
:1018B0004FF07C511846FFF7D1FB0346002B1ED09A
:1018C000F9684FF07E50FFF703F903461946B868F0
:1018D000FFF700F903467B601D4B1B6879681846CB
:1018E000FFF7F8F803461A46194B1A60154978684D
:1018F000FFF7ACFA03461A46144B1A6071E0B96858
:10190000F868FFF7E5F803467B60114B1B687968C0
:101910001846FFF7DDF803461A460D4B1A607B6840
:1019200083F0004307491846FFF790FA03461A462A
:10193000064B1A6055E000BFC0000020C400002024
:10194000BC0000200AD7233CCC000020D00000209F
:10195000C8000020F968B868FFF7BAF803464FF0EE
:101960007C511846FFF77AFB0346002B21D0B9685B
:101970004FF07E50FFF7ACF803461946F868FFF7C2
:10198000A9F803467B60364B1B6879681846FFF759
:101990009FF803461A46324B1A607B6883F0004377
:1019A00030491846FFF752FA03461A462E4B1A6082
:1019B00017E0F968B868FFF78BF803467B60284B9F
:1019C0001B6879681846FFF785F803461A46244BCA
:1019D0001A6024497868FFF739FA03461A46224B01
:1019E0001A60224ABB681360214B1B6821491846C4
:1019F000FFF72CFA03461A461F4B1A601F4B1B6851
:101A00004FF083411846FFF76DF903461A461C4B09
:101A10001A60134B1B6817491846FFF717FA03465D
:101A20001A46184B1A60104B1B681846FEF7F4FC58
:101A300009A3D3E90023FEF747FD02460B461046F3
:101A40001946FEF7F1FF03460F4A136000BF103737
:101A5000BD4680BDAFF30080333333333333304082
:101A6000C80000200AD7233CD0000020CC00002072
:101A7000BC0000203A23CA3EE0000020C400002041
:101A8000E4000020D8000020DC00002080B500AF7A
:101A90000120FFF7F5FD0346044A13600220FFF71B
:101AA000EFFD0346024A136000BF80BDC000002066
:101AB000CC00002080B400AF094B4FF000021A6048
:101AC000084B4FF000021A60074B4FF000021A60FB
:101AD000064B4FF000021A6000BFBD4680BC704745
:101AE000BC000020C4000020C8000020D00000205E
:101AF00080B582B000AF0346FB7197F90730002B29
:101B00000AD14FF0804300229A6300224FF48051A3
:101B1000274802F07BFA48E097F90730002B22DDD6
:101B200097F907301846FFF789F803462149184608
:101B3000FFF7D8F8034620491846FEF7CBFF0346C7
:101B40001846FFF7BBFA03469AB21C4B1A801B4B90
:101B50001A884FF080439A6301224FF48051144851
:101B600002F054FA21E097F907301846FFF766F8BB
:101B7000034613491846FFF7B5F8034611491846BE
:101B8000FEF7A8FF03461846FFF798FA03469AB2F5
:101B90000A4B1A80094B1A884FF080439A6300223F
:101BA0004FF48051024802F031FA0837BD4680BD3B
:101BB000000C01403F358EBFD538F242D4000020E2
:101BC000E71D47BF54E3284280B582B000AF03460B
:101BD000FB7197F90730002B0AD14FF080430022A8
:101BE0005A6300224FF40041274802F00FFA48E000
:101BF00097F90730002B22DD97F907301846FFF7D9
:101C00001DF8034621491846FFF76CF803462049A2
:101C10001846FEF75FFF03461846FFF74FFA0346E4
:101C20009AB21C4B1A801B4B1A884FF080435A63A0
:101C300001224FF40041144802F0E8F921E097F93D
:101C400007301846FEF7FAFF034613491846FFF718
:101C500049F8034611491846FEF73CFF034618466B
:101C6000FFF72CFA03469AB20A4B1A80094B1A88DE
:101C70004FF080435A6300224FF40041024802F0C3
:101C8000C5F90837BD4680BD001001403F358EBF05
:101C9000D538F242D4000020E71D47BF54E3284264
:101CA00090B583B000AF786039608F4B1B681946E0
:101CB0007868FEF70DFF03461A468C4B1B681946E1
:101CC0001046FFF70FF803461A46894B1B68194662
:101CD0001046FEF7FFFE03461A46854B1A604FF08A
:101CE00000017868FFF792F90346002B03D0804B80
:101CF0004FF000021A607F4B1B6879681846FEF7A8
:101D0000F1FF03461C46784B1B6819467868FEF7BE
:101D1000DFFE03461A46784B1B6819461046FEF74D
:101D2000E1FF034619462046FEF7D4FE03461A4655
:101D30006F4B1B6819461046FEF7CCFE03461A4649
:101D40006E4B1A604FF000017868FFF769F903469F
:101D5000002B15D0644B1B684FF000011846FFF7AD
:101D600055F90346002B0BD06FF07C00FFF7C0FE47
:101D7000634B1B68184601F0F3FC0020FFF7B8FE28
:101D80005E4B1B685F491846FFF768F90346002B56
:101D900002D05A4B5B4A1A60584B1B685A49184686
:101DA000FFF73EF90346002B02D0544B564A1A6007
:101DB000564B1B6819463868FEF78AFE03461A46DA
:101DC000534B1B6819461046FEF78CFF03461A4614
:101DD000504B1B6819461046FEF77CFE03461A4618
:101DE0004C4B1A604FF000013868FFF70FF90346BB
:101DF000002B03D0474B4FF000021A60464B1B6884
:101E000039681846FEF76EFF03461C463F4B1B68B9
:101E100019463868FEF75CFE03461A463F4B1B68BE
:101E200019461046FEF75EFF034619462046FEF7A8
:101E300051FE03461A46374B1B6819461046FEF7FB
:101E400049FE03461A46364B1A604FF000013868C7
:101E5000FFF7E6F80346002B15D02C4B1B684FF01C
:101E600000011846FFF7D2F80346002B0BD06FF0A5
:101E70007C00FFF7A9FE224B1B68184601F070FC9E
:101E80000020FFF7A1FE264B1B681E491846FFF7EE
:101E9000E5F80346002B02D0214B1A4A1A60204B6A
:101EA0001B6819491846FFF7BBF80346002B02D000
:101EB0001B4B154A1A60114B1B681846FFF7D8F8E0
:101EC00003465BB21846FFF713FE154B1B68184616
:101ED000FFF7CEF803465BB21846FFF775FE00BF6A
:101EE0000C37BD4690BD00BFE40000200800002074
:101EF000E80000201000002000000020F00000207A
:101F0000180000200000FC420000FCC2DC000020A1
:101F10000C000020EC000020140000200400002031
:101F2000F40000200000000080B500AF01F0B6FB17
:101F300000F0D2FA00F0CEFD00F010FB00F084FBC0
:101F400000F0B8FB00F0ECFB00F0A2FC00F06EFD2E
:101F500000F096FD00F030FB00F01AFD00F05AFB97
:101F6000BB4B1B68DA68BA4B1B6842F02002DA6090
:101F7000B74B1B68DA68B64B1B6842F04002DA6068
:101F8000B44804F095FC0021B24804F085FD04211A
:101F9000B04804F081FD0821AE4804F07DFD002228
:101FA0004FF48051AC4802F031F800224FF4004168
:101FB000AA4802F02BF801220121A94802F026F8D4
:101FC000C82001F0CDFB00220121A54802F01EF837
:101FD000FFF7B2F9A34804F0B5FC4FF4FA7001F032
:101FE000BFFB012202219C4802F010F89E4B022206
:101FF0001A7001224FF40051984802F007F80022AD
:102000004FF48041954802F001F80020FFF770FD81
:102010000020FFF7D9FDFFF739FDFFF74BFD93488F
:1020200003F043FA924B1B68924A12681146184615
:10203000FFF736FE0A2001F093FB8F4A8F49904844
:10204000FFF72CFA8D4BB3F900301A468B4BB3F9DE
:10205000003003FB02F2894BB3F902301946874B7B
:10206000B3F9023001FB03F31A44844BB3F9043093
:102070001946824BB3F9043001FB03F313441846AD
:10208000FEF7B8F902460B461046194606F02CFA40
:1020900002460B4610461946FEF7C6FC0346794A2F
:1020A0001360794BB3F900301A46774BB3F900301F
:1020B00003FB02F2744BB3F902301946724BB3F9C9
:1020C000023001FB03F31A446F4BB3F90430194695
:1020D0006D4BB3F9043001FB03F313441846FEF7CC
:1020E00089F902460B461046194606F0FDF90246EC
:1020F0000B4610461946FEF797FC0346634A1360E9
:102100005E4BB3F900301A465F4BB3F9003003FB66
:1021100002F25A4BB3F9023019465B4BB3F9023065
:1021200001FB03F31A44554BB3F904301946564BDF
:10213000B3F9043001FB03F313441846FEF77EFDA8
:102140000246504B1B6819461046FEF77FFE0346B9
:102150001A464E4B1B6819461046FEF777FE03469B
:102160001846FEF759F902460B461046194606F086
:1021700093F935A3D3E90023FEF7A6F902460B46EF
:10218000104619464FF00002414BFEF7C7FA0246CF
:102190000B4610461946FEF747FC03463D4A1360BE
:1021A0003D4B7E221A70364BB3F900203B4B1A8010
:1021B0003A4B1A78384B5A70384B5A78364B9A70DB
:1021C0002F4BB3F90220354B1A80344B1A78324B1F
:1021D000DA70324B5A78304B1A71294BB3F904201C
:1021E0002E4B1A802D4B1A782B4B5A712B4B5A7849
:1021F000294B9A71204BB3F90020284B1A80274BAA
:102200001A78254BDA71254B5A78234B1A721A4BE0
:10221000B3F90220214B1A80204B1A781E4B5A72B8
:102220001E4B5A781C4B9A72134BB3F904201B4B6C
:102230001A801A4B1A78184BDA72184B5A78164BC8
:102240001A732DE0AFF300803411363CBD520B40C1
:1022500034030020A4020020000C014000100140C3
:1022600000140140EC020020E8030020A00100203F
:102270004C04002050040020CC030020D403002094
:10228000C4030020DC0300201C000020E003002029
:1022900000806640E4030020EC03002014040020CA
:1022A000814BB3F90020814B1A80804B1A78804B08
:1022B0005A737E4B5A787E4B9A737B4BB3F902204C
:1022C0007A4B1A80794B1A78794BDA73774B5A78B4
:1022D000774B1A74744BB3F90420744B1A80734B08
:1022E0001A78734B5A74714B5A78714B9A74714BBC
:1022F0001B681846FEF790F84FF000026E4BFEF791
:10230000E3F802460B461046194665A3D3E90023BD
:10231000FEF7DAF802460B4610461946FEF784FB34
:102320000346664A1360654B1A78614BDA74634B57
:102330005A785F4B1A75614B9A785D4B5A755F4BB3
:10234000DA785B4B9A755E4B1B681846FEF764F8AB
:102350004FF00002584BFEF7B7F802460B46104606
:1023600019464FA3D3E90023FEF7AEF802460B4609
:1023700010461946FEF758FB0346504A13604F4B70
:102380001A784B4BDA754D4B5A78494B1A764B4BB2
:102390009A78474B5A76494BDA78454B9A76494BAF
:1023A0001B681846FEF738F84FF00002424BFEF764
:1023B0008BF802460B461046194639A3D3E9002391
:1023C000FEF782F802460B4610461946FEF72CFB34
:1023D00003463A4A1360394B1A78354BDA76374B55
:1023E0005A78334B1A77354B9A78314B5A77334BAF
:1023F000DA782F4B9A77344B1B681846FEF70CF8A7
:102400004FF000022C4BFEF75FF802460B461046D9
:10241000194623A3D3E90023FEF756F802460B46DC
:1024200010461946FEF700FB0346244A1360234B6F
:102430001A781F4BDA77214B5A781D4B83F82020EE
:102440001E4B9A781A4B83F821201C4BDA78184BD4
:1024500083F822201D4B1B881AB2144B1A80134B91
:102460001A78134B83F82320104B5A78104B83F8BB
:102470002420174B1B881AB20C4B1A800B4B1A786E
:102480000B4B83F82520094B5A78094B83F82620FB
:102490000A23272206490F4805F007FA00BFBEE5C8
:1024A000F1D4C853FB210940D403002014040020B8
:1024B000EC030020BC0000200000044018040020B1
:1024C000C8000020C4000020D0000020220000200E
:1024D000240000203403002080B590B000AF07F145
:1024E000180328220021184605F0A4FF3B1D0022F6
:1024F0001A605A609A60DA601A610A23BB6101238C
:10250000BB621023FB6201233B6302237B63002336
:10251000BB634FF4C013FB6307F11803184602F0C6
:10252000D3FF0346002B01D000F0AAFB0F237B60F2
:102530000223BB600023FB6000233B6100237B611F
:102540003B1D0121184603F041FA0346002B01D040
:1025500000F096FB00BF4037BD4680BD80B500AFA0
:10256000124B134A1A60114B124A5A600F4B002249
:102570009A600E4B0022DA600C4B4FF480421A61D5
:102580000A4B00225A61094B00229A61074B002234
:10259000DA61064B00221A62044801F04FFD03463F
:1025A000002B01D000F06CFB00BF80BDF8000020C4
:1025B00000540040A086010080B500AF124B134AC2
:1025C0001A60114B124A5A600F4B00229A600E4B50
:1025D0000022DA600C4B4FF480421A610A4B002251
:1025E0005A61094B00229A61074B0022DA61064BBF
:1025F00000221A62044801F021FD0346002B01D09D
:1026000000F03EFB00BF80BD4C01002000580040A0
:10261000A086010080B500AF094B0A4A1A60084B3A
:1026200003225A60064B40F6FF729A60044802F09B
:10263000F8FE0346002B01D000F022FB00BF80BD56
:10264000A00100200030004080B500AF174B184AB1
:102650001A60164B4FF482725A60144B00229A6033
:10266000124B0022DA60114B00221A610F4B00223C
:102670005A610E4B4FF400729A610C4B1822DA61CA
:102680000A4B00221A62094B00225A62074B0022B1
:102690009A62064B0A22DA62044803F025FB0346DD
:1026A000002B01D000F0ECFA00BF80BDAC0100208F
:1026B0000030014080B500AF174B184A1A60164B26
:1026C0004FF482725A60144B00229A60124B00221F
:1026D000DA60114B00221A610F4B00225A610E4B37
:1026E0004FF400729A610C4B0022DA610A4B00220F
:1026F0001A62094B00225A62074B00229A62064B6B
:102700000A22DA62044803F0EFFA0346002B01D0F4
:1027100000F0B6FA00BF80BD04020020003800407F
:1027200080B596B000AF07F1480300221A605A60E6
:102730009A60DA6007F1400300221A605A6007F1DC
:10274000240300221A605A609A60DA601A615A61A2
:102750009A613B1D20220021184605F06BFE4A4B72
:102760004A4A1A60484B00225A60474B00229A603E
:10277000454B4FF6FF72DA60434B00221A61424B21
:1027800000225A61404B00229A613F4804F041F810
:102790000346002B01D000F073FA4FF48053BB6462
:1027A00007F148031946384804F0CAFB0346002BDA
:1027B00001D000F065FA344804F016F90346002B06
:1027C00001D000F05DFA00233B6400237B6407F135
:1027D000400319462C4804F057FF0346002B01D054
:1027E00000F04EFA60237B620023BB620023FB6291
:1027F00000233B6300237B630023BB630023FB6355
:1028000007F12403002219461F4804F0D7FA0346B3
:10281000002B01D000F034FA07F1240304221946FA
:10282000194804F0CBFA0346002B01D000F028FA37
:1028300007F1240308221946134804F0BFFA03469F
:10284000002B01D000F01CFA00237B600023BB604A
:102850000023FB6000233B6100237B614FF40053A6
:10286000BB6100233B623B1D1946074804F06AFF29
:102870000346002B01D000F003FA034800F0CCFB24
:1028800000BF5837BD4680BD5C020020002C0140CF
:1028900080B58EB000AF07F1280300221A605A609D
:1028A0009A60DA6007F1200300221A605A603B1D2B
:1028B00000221A605A609A60DA601A615A619A615D
:1028C000324B4FF080421A60304B1F225A602F4B20
:1028D00000229A602D4B7F22DA602C4B00221A6175
:1028E0002A4B00229A61294803F093FF0346002BEC
:1028F00001D000F0C5F94FF48053BB6207F1280303
:102900001946224804F01CFB0346002B01D000F0BE
:10291000B7F91E4804F068F80346002B01D000F018
:10292000AFF900233B6200237B6207F120031946C5
:10293000164804F0A9FE0346002B01D000F0A0F9D0
:1029400060237B600023BB600023FB6000237B616E
:102950003B1D002219460D4804F030FA0346002BB7
:1029600001D000F08DF93B1D04221946074804F000
:1029700025FA0346002B01D000F082F9034800F04D
:102980004BFB00BF3837BD4680BD00BFA40200200E
:1029900080B586B000AF07F1080300221A605A60C4
:1029A0009A60DA603B4600221A605A601D4B1E4A4C
:1029B0001A601C4B47F6FF425A601A4B00229A607D
:1029C000184B0922DA60174B00221A61154B0022BE
:1029D0009A61144803F01DFF0346002B01D000F05C
:1029E0004FF94FF48053BB6007F1080319460D48B7
:1029F00004F0A6FA0346002B01D000F041F90023B1
:102A00003B6000237B603B461946064804F03CFED1
:102A10000346002B01D000F033F900BF1837BD4644
:102A200080BD00BFEC0200200004004080B500AF74
:102A3000114B124A1A60104B4FF4E1325A600E4BA0
:102A400000229A600C4B0022DA600B4B00221A61C4
:102A5000094B0C225A61084B00229A61064B002256
:102A6000DA61054804F0D1FE0346002B01D000F0E6
:102A700007F900BF80BD00BF3403002000380140CB
:102A800080B500AF114B124A1A60104B4FF4E1327F
:102A90005A600E4B00229A600C4B0022DA600B4BFE
:102AA00000221A61094B0C225A61084B00229A61DC
:102AB000064B0022DA61054804F0A7FE0346002B0E
:102AC00001D000F0DDF800BF80BD00BF7C03002016
:102AD0000044004080B58AB000AF07F11403002223
:102AE0001A605A609A60DA605E4B9B695D4A43F0F7
:102AF000100393615B4B9B6903F010033B613B69DF
:102B0000584B9B69574A43F020039361554B9B698F
:102B100003F02003FB60FB68524B9B69514A43F072
:102B2000040393614F4B9B6903F00403BB60BB68D4
:102B30004C4B9B694B4A43F008039361494B9B699B
:102B400003F008037B607B6800224FF46041464835
:102B500001F05CFA00220321444801F057FA0022F8
:102B600049F61001424801F051FA002241F23B01BE
:102B7000404801F04BFA4FF460437B610123BB6195
:102B80000023FB6102233B6207F114031946364818
:102B900000F0FCFF03237B610123BB610023FB6189
:102BA00002233B6207F114031946304800F0EEFFA0
:102BB00041F610037B610123BB610023FB6102230B
:102BC0003B6207F114031946294800F0DFFF3B235D
:102BD0007B610123BB610023FB6102233B6207F1A0
:102BE00014031946234800F0D1FF04237B61224BD4
:102BF000BB610023FB6107F1140319461D4800F077
:102C0000C5FF4FF480537B610123BB610223FB614D
:102C100002233B6207F114031946164800F0B6FF81
:102C20004FF400437B610123BB610223FB6102235C
:102C30003B6207F1140319460D4800F0A7FF0F4B44
:102C40005B687B627B6A43F0E0637B627B6A43F490
:102C500000437B62094A7B6A536000BF2837BD4648
:102C600080BD00BF00100240001001400014014070
:102C700000080140000C014000001110000001405C
:102C800080B400AF72B600BF00BFFDE780B485B06E
:102C900000AF154B9B69144A43F001039361124B3B
:102CA0009B6903F00103BB60BB680F4BDB690E4AF5
:102CB00043F08053D3610C4BDB6903F080537B609E
:102CC0007B680A4B5B68FB60FB6823F0E063FB609A
:102CD000FB6843F00073FB60044AFB68536000BF6D
:102CE0001437BD4680BC7047001002400000014010
:102CF00080B58CB000AF786007F11C0300221A6029
:102D00005A609A60DA607B681B68364A934233D116
:102D1000354B9B69344A43F008039361324B9B69FE
:102D200003F00803BB61BB694FF44073FB611223DE
:102D30003B620323BB6207F11C0319462B4800F0DA
:102D400025FF2B4B5B68FB62FB6A43F0E063FB6291
:102D5000FB6A43F00203FB62254AFB6A5360224B85
:102D6000DB69214A43F40013D3611F4BDB6903F491
:102D700000137B617B6931E07B681B681D4A9342CD
:102D80002CD1194B9B69184A43F008039361164BE9
:102D90009B6903F008033B613B694FF44063FB61AF
:102DA00012233B620323BB6207F11C0319460F4841
:102DB00000F0ECFE0C4BDB690B4A43F48003D3615B
:102DC000094BDB6903F48003FB60FB6800220E21E2
:102DD000222000F0E4FD222000F0FDFD00BF30378E
:102DE000BD4680BD0054004000100240000C014070
:102DF000000001400058004080B582B000AF78600C
:102E00007B681B68174A934210D1174BDB69164A3F
:102E100023F40013D3614FF48071144801F03AF8A1
:102E20004FF40071114801F035F817E07B681B681A
:102E30000F4A934212D10C4BDB690B4A23F48003F7
:102E4000D3614FF48061094801F024F84FF4006128
:102E5000064801F01FF8222000F0CBFD00BF083724
:102E6000BD4680BD0054004000100240000C0140EF
:102E70000058004080B58AB000AF786007F11803B1
:102E800000221A605A609A60DA607B681B68374AD1
:102E9000934230D1364B9B69354A43F4805393615A
:102EA000334B9B6903F480537B617B69304B9B6997
:102EB0002F4A43F0040393612D4B9B6903F00403F5
:102EC0003B613B69A023BB610223FB6103237B625F
:102ED00007F118031946274800F058FE4023BB614C
:102EE0000023FB6100233B6207F1180319462148C8
:102EF00000F04CFE36E07B681B681F4A934231D1DC
:102F00001B4BDB691A4A43F48043D361184BDB69DE
:102F100003F48043FB60FB68154B9B69144A43F044
:102F200008039361124B9B6903F00803BB60BB6805
:102F30004FF42043BB610223FB6103237B6207F153
:102F4000180319460D4800F021FE4FF48043BB6181
:102F50000023FB6100233B6207F118031946074871
:102F600000F014FE00BF2837BD4680BD0030014090
:102F7000001002400008014000380040000C0140F1
:102F800080B586B000AF78607B681B681F4A9342AB
:102F90000CD11F4B9B691E4A43F4006393611C4B89
:102FA0009B6903F400637B617B692AE07B681B6893
:102FB000B3F1804F0CD1164BDB69154A43F0010386
:102FC000D361134BDB6903F001033B613B6918E0FC
:102FD0007B681B680F4A934213D10D4BDB690C4A87
:102FE00043F00203D3610A4BDB6903F00203FB6089
:102FF000FB6800220A211D2000F0D1FC1D2000F0FA
:10300000EAFC00BF1837BD4680BD00BF002C014060
:10301000001002400004004080B588B000AF786026
:1030200007F1100300221A605A609A60DA607B6828
:103030001B681F4A934219D11E4B9B691D4A43F0DE
:10304000040393611B4B9B6903F00403FB60FB6863
:103050004FF4E0633B6102237B610223FB6107F1D4
:1030600010031946144800F091FD1CE07B681B68B2
:10307000B3F1804F17D10F4B9B690E4A43F0040305
:1030800093610C4B9B6903F00403BB60BB68032393
:103090003B6102237B610223FB6107F110031946A8
:1030A000054800F073FD00BF2037BD4680BD00BF5E
:1030B000002C0140001002400008014080B58CB097
:1030C00000AF786007F11C0300221A605A609A6012
:1030D000DA607B681B68454A934246D1444B9B6942
:1030E000434A43F480439361414B9B6903F480431B
:1030F000BB61BB693E4B9B693D4A43F0080393614A
:103100003B4B9B6903F008037B617B694023FB61B8
:1031100002233B620323BB6207F11C0319463548B7
:1031200000F034FD8023FB6100233B6200237B62BF
:1031300007F11C0319462F4800F028FD2E4B5B6851
:10314000FB62FB6A43F0E063FB62FB6A43F004034B
:10315000FB62294AFB6A536000220721252000F008
:103160001EFC252000F037FC3CE07B681B68234AEE
:10317000934237D11E4BDB691D4A43F40033D361C0
:103180001B4BDB6903F400333B613B69184B9B69C4
:10319000174A43F004039361154B9B6903F0040342
:1031A000FB60FB680423FB6102233B620323BB62D9
:1031B00007F11C031946124800F0E8FC0823FB61E4
:1031C00000233B6200237B6207F11C0319460C4875
:1031D00000F0DCFC00220C21262000F0E0FB262081
:1031E00000F0F9FB00BF3037BD4680BD003801401C
:1031F00000100240000C014000000140004400406B
:103200000008014080B485B000AF78603960FF23CA
:10321000FB7320E07B685A1C7A601A78FB7B534072
:10322000FB730023BB6013E097F90F30002B08DA23
:1032300097F90F305B005BB283F031035BB2DBB216
:1032400002E0FB7B5B00DBB2FB73BB680133BB605E
:10325000BB68072BE8D93B685A1E3A60002BD9D1CE
:10326000FB7B18461437BD4680BC704780B400AF66
:1032700000BFFDE780B400AF00BFFDE780B400AF42
:1032800000BFFDE780B400AF00BFFDE780B400AF32
:1032900000BFFDE780B400AF00BFBD4680BC7047F3
:1032A00080B400AF00BFBD4680BC704780B400AFA3
:1032B00000BFBD4680BC704780B500AF00F034FA57
:1032C00000BF80BD80B500AFFEF71EFA024803F0D4
:1032D00085FC00BF80BD00BFEC02002080B500AFC0
:1032E000054800F0EFFF044800F0A8FE024801F096
:1032F000A1FA00BF80BD00BF4C01002080B500AF27
:10330000914B1B6803F02003002B00F04E818E4B85
:103310005B68DAB28D4B1A708D4B1B78012B40F233
:1033200005818B4B1B781A46884B1978894B995429
:10333000874B1B780133DAB2854B1A70864B1B78AA
:10334000A02B4DD1824B1B780C2B49D1814B9A7805
:10335000824B1A707F4BDA78804B5A707D4B1A790A
:103360007E4B9A707B4B5A797C4BDA707B4B1B6897
:103370007B4A1360774B9A79784B1A70754BDA79E0
:10338000764B5A70734B1A7A744B9A70714B5A7A07
:10339000724BDA70714B1B68724A13606D4B9A7AEC
:1033A000714B1A706B4BDA7A704B1A70704B0A21A2
:1033B0001846FFF727FF03461A466E4B1A706B4BF1
:1033C0001A786C4B1B789A4207D1654B1B686A4A86
:1033D0001360644B1B68694A13605D4B00221A70CE
:1033E0005D4B1B780F2B40F09680594B1B781B2BA5
:1033F00040F09180574B9A78584B1A70554BDA78B9
:10340000564B5A70534B1A79544B9A70514B5A7908
:10341000524BDA70514B1B68594A13604D4B9A79E5
:103420004E4B1A704B4BDA794C4B5A70494B1A7A07
:103430004A4B9A70474B5A7A484BDA70474B1B6895
:103440004F4A5360434B9A7A444B1A70414BDA7A95
:10345000424B5A703F4B1A7B404B9A703D4B5A7B04
:103460003E4BDA703D4B1B68454A9360394B9A7B63
:103470003A4B1A70374BDA7B384B5A70354B1A7C03
:10348000364B9A70334B5A7C344BDA70334B1B6893
:103490003B4AD3602F4B9A7C304B1A702D4BDA7C11
:1034A0002E4B5A702B4B1A7D2C4B9A70294B5A7D00
:1034B0002A4BDA70294B1B68314A1361254B9A7DE0
:1034C000264B1A70234BDA7D244B5A70214B1A7EFF
:1034D000224B9A701F4B5A7E204BDA701F4B1B6891
:1034E000274A53611B4B9A7E204B1A70204B19219F
:1034F0001846FFF787FE03461A461E4B1A701B4BF1
:103500001A781C4B1B789A4202D11E4B01221A706A
:103510000F4B00221A70104B1B780F2B06D00E4B4E
:103520001B78A02B02D00A4B00221A70084B1B7884
:10353000012B2BD1064B02221A70044B1A78064B32
:103540001A70024B1A781FE0003801401C0400205A
:10355000280400202C0400205504002048040020EA
:103560002004002024040020540400201D04002016
:103570002D0400201E0400204C04002050040020D4
:1035800058040020700400200A4B5A700A4B1B7824
:10359000002B0AD1094B1B787E2B06D1064B01224A
:1035A0001A70064B1A78034B1A70054804F008FA93
:1035B00000BF80BD2C040020280400201C04002033
:1035C0003403002080B500AF184B1B6803F02003C4
:1035D000002B25D0154B5B68DAB2154B1A70154BD2
:1035E0001B78022B06D1124B1A78134B1A70114B11
:1035F00003221A700F4B1B78012B06D10C4B1A7843
:103600000E4B1A700B4B02221A700A4B1B78002BC0
:1036100006D1074B1B787E2B02D1064B01221A7074
:10362000074804F0CDF900BF80BD00BF0044004052
:103630001C040020280400202A0400202904002063
:103640007C03002080B400AF00BFBD4680BC704743
:10365000FFF7F8FF0B480C490C4A002302E0D4584E
:10366000C4500433C4188C42F9D3094A094C0023CE
:1036700001E013600432A242FBD304F0E9FEFEF73E
:1036800053FC70470000002084000020E88B0008F5
:1036900084000020B0050020FEE7000080B500AFE8
:1036A000084B1B68074A43F010031360032000F027
:1036B0006BF90F2000F008F8FFF7E8FA002318462E
:1036C00080BD00BF0020024080B582B000AF7860AE
:1036D000124B1A68124B1B7819464FF47A73B3FBDE
:1036E000F1F3B2FBF3F3184600F091F90346002B17
:1036F00001D001230EE07B680F2B0AD800227968E5
:103700004FF0FF3000F04BF9064A7B68136000234E
:1037100000E0012318460837BD4680BD2800002080
:10372000300000202C00002080B400AF054B1B7837
:103730001A46054B1B681344034A136000BFBD467D
:1037400080BC7047300000207404002080B400AFBB
:10375000024B1B681846BD4680BC704774040020AD
:1037600080B584B000AF7860FFF7F0FFB8607B6889
:10377000FB60FB68B3F1FF3F05D00A4B1B781A468C
:10378000FB681344FB6000BFFFF7E0FF0246BB6825
:10379000D31AFA689A42F7D800BF00BF1037BD4667
:1037A00080BD00BF3000002080B485B000AF7860DD
:1037B0007B6803F00703FB600C4BDB68BB60BA68F7
:1037C0004FF6FF031340BB60FB681A02BB6813434C
:1037D00043F0BF6343F40033BB60044ABB68D3606B
:1037E00000BF1437BD4680BC704700BF00ED00E04D
:1037F00080B400AF044BDB681B0A03F007031846D4
:10380000BD4680BC704700BF00ED00E080B483B0CF
:1038100000AF0346FB7197F90730002B0BDBFB79F8
:1038200003F01F02064997F907305B09012000FAEF
:1038300002F241F8232000BF0C37BD4680BC704720
:1038400000E100E080B483B000AF0346FB7197F95C
:103850000730002B12DBFB7903F01F020A4997F9AE
:1038600007305B09012000FA02F2203341F82320DF
:10387000BFF34F8F00BFBFF36F8F00BF00BF0C3788
:10388000BD4680BC704700BF00E100E080B483B05B
:1038900000AF03463960FB7197F90730002B0ADB54
:1038A0003B68DAB20C4997F907301201D2B20B44E7
:1038B00083F800230AE03B68DAB20849FB7903F099
:1038C0000F03043B1201D2B20B441A7600BF0C372F
:1038D000BD4680BC704700BF00E100E000ED00E0A5
:1038E00080B489B000AFF860B9607A60FB6803F01B
:1038F0000703FB61FB69C3F10703042B28BF042303
:10390000BB61FB690433062B02D9FB69033B00E072
:1039100000237B614FF0FF32BB6902FA03F3DA4305
:10392000BB681A407B699A404FF0FF317B6901FA0E
:1039300003F3D9437B680B40134318462437BD4635
:1039400080BC704780B582B000AF78607B68013B77
:10395000B3F1807F01D301230FE00A4A7B68013B6A
:1039600053600F214FF0FF30FFF790FF054B00220F
:103970009A60044B07221A60002318460837BD4698
:1039800080BD00BF10E000E080B582B000AF78607D
:103990007868FFF709FF00BF0837BD4680BD80B5D6
:1039A00086B000AF0346B9607A60FB7300237B6189
:1039B000FFF71EFF78617A68B9687869FFF790FFB2
:1039C000024697F90F3011461846FFF75FFF00BF18
:1039D0001837BD4680BD80B582B000AF0346FB718D
:1039E00097F907301846FFF711FF00BF0837BD46AB
:1039F00080BD80B582B000AF0346FB7197F90730F8
:103A00001846FFF71FFF00BF0837BD4680BD80B5D1
:103A100082B000AF78607868FFF794FF03461846DD
:103A20000837BD4680BD80B485B000AF7860002304
:103A3000FB737B6893F82130DBB2022B08D07B68E4
:103A400004229A637B68002283F82020012320E06F
:103A50007B681B681A687B681B6822F00E021A607C
:103A60007B681B681A687B681B6822F001021A6079
:103A70007B681A6C7B68DB6B012101FA02F25A60E9
:103A80007B68012283F821207B68002283F82020B4
:103A9000FB7B18461437BD4680BC704780B584B0A8
:103AA00000AF78600023FB737B6893F82130DBB2B2
:103AB000022B05D07B6804229A630123FB7351E03B
:103AC0007B681B681A687B681B6822F00E021A600C
:103AD0007B681B681A687B681B6822F001021A6009
:103AE0007B681B68224A934229D07B681B68214A65
:103AF000934222D07B681B681F4A93421AD07B688E
:103B00001B681E4A934212D07B681B681C4A934272
:103B10000AD07B681B681B4A934202D14FF4801382
:103B20000EE04FF080730BE04FF4803308E04FF469
:103B3000805305E04FF4807302E0102300E001237E
:103B4000114A53607B68012283F821207B680022A0
:103B500083F820207B685B6B002B03D07B685B6B5A
:103B600078689847FB7B18461037BD4680BD00BF7C
:103B7000080002401C0002403000024044000240A5
:103B8000580002406C0002400000024080B48BB03C
:103B900000AF7860396000237B6200233B6269E1FB
:103BA00001227B6A02FA03F3FB613B681B68FA6936
:103BB0001340BB61BA69FB699A4240F058813B6887
:103BC0005B689A4A93425ED0984A934275D8984A65
:103BD000934258D0964A93426FD8964A934252D015
:103BE000944A934269D8944A93424CD0924A934261
:103BF00063D8924A934246D0904A93425DD8122BA2
:103C00002AD8122B59D801A252F823F0873C000879
:103C1000613C0008733C0008B53C0008BB3C000850
:103C2000BB3C0008BB3C0008BB3C0008BB3C000898
:103C3000BB3C0008BB3C0008BB3C0008BB3C000888
:103C4000BB3C0008BB3C0008BB3C0008BB3C000878
:103C5000693C00087D3C0008794A934213D02CE06F
:103C60003B68DB683B6229E03B68DB6804333B620E
:103C700024E03B68DB6808333B621FE03B68DB689D
:103C80000C333B621AE03B689B68002B02D1042393
:103C90003B6213E03B689B68012B05D108233B6224
:103CA0007B68FA691A6109E008233B627B68FA695C
:103CB0005A6103E000233B6200E000BFBB69FF2BB9
:103CC00001D87B6801E07B6804337B61BB69FF2B13
:103CD00002D87B6A9B0002E07B6A083B9B003B6149
:103CE0007B691A680F213B6901FA03F3DB431A4031
:103CF000396A3B6901FA03F31A437B691A603B682E
:103D00005B6803F08053002B00F0B1804D4B9B6942
:103D10004C4A43F0010393614A4B9B6903F0010352
:103D2000BB60BB68484A7B6A9B08023352F8233069
:103D3000FB607B6A03F003039B000F2202FA03F38C
:103D4000DB43FA681340FB607B68404A934213D020
:103D50007B683F4A93420DD07B683E4A934207D02E
:103D60007B683D4A934201D1032306E0042304E02B
:103D7000022302E0012300E000237A6A02F003023A
:103D800092009340FA681343FB602F497B6A9B08BB
:103D90000233FA6841F823203B685B6803F4801320
:103DA000002B06D02D4B9A682C49BB6913438B60BE
:103DB00006E02A4B9A68BB69DB43284913408B60B5
:103DC0003B685B6803F40013002B06D0234BDA68D2
:103DD0002249BB691343CB6006E0204BDA68BB691C
:103DE000DB431E491340CB603B685B6803F4003340
:103DF000002B06D0194B5A681849BB6913434B6016
:103E000006E0164B5A68BB69DB43144913404B600C
:103E10003B685B6803F48033002B21D00F4B1A689A
:103E20000E49BB6913430B6021E000BF0000321054
:103E300000003110000022100000211000001210BC
:103E40000000111000100240000001400008014075
:103E5000000C01400010014000140140000401402A
:103E60000B4B1A68BB69DB43094913400B607B6A43
:103E700001337B623B681A687B6A22FA03F3002BEA
:103E80007FF48EAE00BF00BF2C37BD4680BC7047AC
:103E90000004014080B489B000AF7860396000232D
:103EA000FB619AE00122FB6902FA03F33A681340CE
:103EB000BB61BB69002B00F08D804E4AFB699B08FB
:103EC000023352F823307B61FB6903F003039B004C
:103ED0000F2202FA03F37A6913407B617B68464A3A
:103EE000934213D07B68454A93420DD07B68444A85
:103EF000934207D07B68434A934201D1032306E0F3
:103F0000042304E0022302E0012300E00023FA6915
:103F100002F00302920093407A699A4232D13A4BFE
:103F20001A68BB69DB43384913400B60364B5A684B
:103F3000BB69DB43344913404B60334BDA68BB69E0
:103F4000DB4331491340CB602F4B9A68BB69DB439D
:103F50002D4913408B60FB6903F003039B000F2284
:103F600002FA03F37B61234AFB699B08023352F890
:103F700023107B69DA431F48FB699B080A40023320
:103F800040F82320BB69FF2B01D87B6801E07B68E8
:103F900004333B61BB69FF2B02D8FB699B0002E045
:103FA000FB69083B9B00FB603B691A680F21FB68BB
:103FB00001FA03F3DB431A400421FB6801FA03F31F
:103FC0001A433B691A607B68DA68BB69DB431A40B5
:103FD0007B68DA60FB690133FB613A68FB6922FAAE
:103FE00003F3002B7FF45EAF00BF00BF2437BD4654
:103FF00080BC70470000014000080140000C0140F7
:1040000000100140001401400004014080B483B05E
:1040100000AF78600B467B8013467B707B78002B6B
:1040200003D07A887B681A6103E07B881A047B6876
:104030001A6100BF0C37BD4680BC704780B584B0A4
:1040400000AF78607B68002B01D101232BE17B68F6
:1040500093F83D30DBB2002B06D17B68002283F859
:104060003C207868FEF744FE7B68242283F83D20DC
:104070007B681B681A687B681B6822F001021A6063
:104080007B681B681A687B681B6842F400421A60F0
:104090007B681B681A687B681B6822F400421A6000
:1040A00001F0DCFDF8607B685B68814A934207D8C9
:1040B000FB68804A934294BF01230023DBB206E0F1
:1040C000FB687D4A934294BF01230023DBB2002B9F
:1040D00001D00123E7E0FB68784AA2FB03239B0C95
:1040E000BB607B681B685B6823F03F017B681B68D3
:1040F000BA680A435A607B681B681B6A23F03F0159
:104100007B685B686A4A934202D8BB68013309E066
:10411000BB684FF4967202FB03F3694AA2FB0323C8
:104120009B0901337A6812680B4313627B681B6832
:10413000DB6923F44F4222F0FF027B685B685C4935
:104140008B4219D8FB68591E7B685B685B00B1FB2A
:10415000F3F3591C40F6FC730B40002B0AD0FB68AC
:10416000591E7B685B685B00B1FBF3F30133C3F35B
:104170000B0351E004234FE07B689B68002B11D1B7
:10418000FB68581E7B6859680B465B000B44B0FB0C
:10419000F3F30133C3F30B03002B0CBF0123002304
:1041A000DBB212E0FB68581E7B6859680B469B0027
:1041B0000B4499000B44B0FBF3F30133C3F30B033F
:1041C000002B0CBF01230023DBB2002B01D0012305
:1041D00022E07B689B68002B0ED1FB68581E7B6831
:1041E00059680B465B000B44B0FBF3F30133C3F398
:1041F0000B0343F400430FE0FB68581E7B685968CB
:104200000B469B000B4499000B44B0FBF3F30133C6
:10421000C3F30B0343F44043796809681343CB614C
:104220007B681B681B6823F0C0017B68DA697B68C8
:104230001B6A1A437B681B680A431A607B681B6809
:104240009B6823F4034323F0FF037A6811697A68BB
:10425000D26811437A6812680B4393607B681B68CD
:10426000DB6823F0FF017B685A697B689B691A430E
:104270007B681B680A43DA607B681B681A687B6886
:104280001B6842F001021A607B6800221A647B6896
:10429000202283F83D207B6800221A637B6800227D
:1042A00083F83E20002318461037BD4680BD00BF6E
:1042B000A08601007F841E00FF083D0083DE1B43B3
:1042C000D34D621080B582B000AF78607B68002B60
:1042D00001D1012321E07B68242283F83D207B6803
:1042E0001B681A687B681B6822F001021A607868F4
:1042F000FEF782FD7B6800221A647B68002283F847
:104300003D207B6800221A637B68002283F83E20F0
:104310007B68002283F83C20002318460837BD46FE
:1043200080BD80B483B000AF78607B681B685B6938
:1043300003F08003802B03D17B681B6800221A6185
:1043400000BF0C37BD4680BC7047000080B58CB004
:1043500002AFF860084611461A4603467B810B46B9
:104360003B811346FB8000233B62FFF7EFF9786245
:10437000FB6893F83D30DBB2202B40F050827B6A23
:104380000093192301228249F86800F05DFE03467C
:10439000002B01D0022343E2FB6893F83C30012B51
:1043A00001D102233CE2FB68012283F83C20FB6838
:1043B0001B681B6803F00103012B07D0FB681B6817
:1043C0001A68FB681B6842F001021A60FB681B68F0
:1043D0001A68FB681B6822F400621A60FB682222DC
:1043E00083F83D20FB68402283F83E20FB680022D2
:1043F0001A64FB683A6B5A62FB68BA8E5A85FB688E
:104400005B8D9AB2FB681A85FB68624ADA62F888AB
:104410003A8979897B6A0193BB6B00930346F868FC
:1044200000F082FC0346002B01D00123F8E1FB6879
:104430001B8D002B13D10023FB61FB681B685B699C
:10444000FB61FB681B689B69FB61FB69FB681B6880
:104450001A68FB681B6842F400721A60CCE1FB68C2
:104460001B8D012B1ED1FB681B681A68FB681B683B
:1044700022F480621A6072B600BF0023BB61FB6841
:104480001B685B69BB61FB681B689B69BB61BB699F
:10449000FB681B681A68FB681B6842F400721A60AC
:1044A00062B635E0FB681B8D022B1ED1FB681B68D2
:1044B0001A68FB681B6842F400621A6072B600BF9B
:1044C00000237B61FB681B685B697B61FB681B6881
:1044D0009B697B617B69FB681B681A68FB681B68CA
:1044E00022F480621A6062B612E0FB681B681A68E8
:1044F000FB681B6842F480621A6000233B61FB6822
:104500001B685B693B61FB681B689B693B613B699E
:1045100072E1FB681B8D032B00F21F81FB681B8D72
:10452000012B23D17A6AB96BF86800F0EFFE0346DD
:10453000002B01D0012373E1FB681B681A69FB683B
:104540005B6AD2B21A70FB685B6A5A1CFB685A62DB
:10455000FB681B8D013B9AB2FB681A85FB685B8D7B
:104560009BB2013B9AB2FB685A8545E1FB681B8D03
:10457000022B52D17B6A0093BB6B00220649F8687C
:1045800000F062FD0346002B08D0012348E100BF84
:10459000020010000000FFFF0400010072B600BF1F
:1045A000FB681B681A68FB681B6842F400721A609B
:1045B000FB681B681A69FB685B6AD2B21A70FB68F9
:1045C0005B6A5A1CFB685A62FB681B8D013B9AB2FE
:1045D000FB681A85FB685B8D9BB2013B9AB2FB6856
:1045E0005A8562B600BFFB681B681A69FB685B6A84
:1045F000D2B21A70FB685B6A5A1CFB685A62FB688D
:104600001B8D013B9AB2FB681A85FB685B8D9BB2E0
:10461000013B9AB2FB685A85EEE07B6A0093BB6B64
:1046200000228149F86800F00FFD0346002B01D0FD
:104630000123F5E0FB681B681A68FB681B6822F41D
:1046400080621A6072B600BFFB681B681A69FB685B
:104650005B6AD2B21A70FB685B6A5A1CFB685A62CA
:10466000FB681B8D013B9AB2FB681A85FB685B8D6A
:104670009BB2013B9AB2FB685A856C4B1B68DB0806
:104680006B4AA2FB03231A0A13469B001344DA0069
:10469000D31A3B623B6A013B3B623B6A002B18D159
:1046A000FB6800221A63FB68202283F83D20FB6828
:1046B000002283F83E20FB681B6C43F02002FB685D
:1046C0001A6462B600BFFB68002283F83C20012315
:1046D000A6E0FB681B685B6903F00403042BD9D1D7
:1046E000FB681B681A68FB681B6842F400721A605A
:1046F000FB681B681A69FB685B6AD2B21A70FB68B8
:104700005B6A5A1CFB685A62FB681B8D013B9AB2BC
:10471000FB681A85FB685B8D9BB2013B9AB2FB6814
:104720005A8562B600BFFB681B681A69FB685B6A42
:10473000D2B21A70FB685B6A5A1CFB685A62FB684B
:104740001B8D013B9AB2FB681A85FB685B8D9BB29F
:10475000013B9AB2FB685A854EE07A6AB96BF868F9
:1047600000F0D4FD0346002B01D0012358E0FB6884
:104770001B681A69FB685B6AD2B21A70FB685B6AD5
:104780005A1CFB685A62FB681B8D013B9AB2FB689E
:104790001A85FB685B8D9BB2013B9AB2FB685A8518
:1047A000FB681B685B6903F00403042B24D1FB68DE
:1047B0001B8D032B07D1FB681B681A68FB681B68FD
:1047C00022F480621A60FB681B681A69FB685B6AE6
:1047D000D2B21A70FB685B6A5A1CFB685A62FB68AB
:1047E0001B8D013B9AB2FB681A85FB685B8D9BB2FF
:1047F000013B9AB2FB685A85FB681B8D002B7FF446
:1048000088AEFB68202283F83D20FB68002283F8F5
:104810003E20FB68002283F83C20002300E00223B6
:1048200018462837BD4680BD04000100280000203E
:1048300089B5F81480B58AB000AF78607B681B68D2
:104840005B693B627B681B685B68FB6100237B6282
:104850007B6893F83E30FB763B6A1B0A03F001034A
:10486000002B16D0FB691B0A03F00103002B10D0AC
:104870007B6A43F001037B627B681B686FF4807284
:104880005A617B681B681A687B681B6842F40042A7
:104890001A603B6A5B0A03F00103002B0ED0FB6930
:1048A0001B0A03F00103002B08D07B6A43F00203CC
:1048B0007B627B681B686FF400725A613B6A9B0ADB
:1048C00003F00103002B3FD0FB691B0A03F0010337
:1048D000002B39D0FB7EBB767B685B8D9BB27B6106
:1048E0007B6893F83D30FB747B681B6BFB60BB7E81
:1048F000202B12D17B69002B0FD1FB7C212B08D000
:10490000FB7C292B05D0FB7C282B06D1FB68212BB7
:1049100003D1786800F062F816E07B681B686FF4DA
:1049200080625A617B6A43F004037B62FB7E102B3A
:1049300002D0FB7E402B07D17B681B681A687B681E
:104940001B6842F400721A603B6ADB0A03F0010341
:10495000002B0ED0FB691B0A03F00103002B08D0CB
:104960007B6A43F008037B627B681B686FF400621C
:104970005A617B6A002B08D07B681A6C7B6A1A43E9
:104980007B681A64786800F09DF800BF2837BD4640
:1049900080BD80B483B000AF786000BF0C37BD46E7
:1049A00080BC704780B483B000AF786000BF0C3724
:1049B000BD4680BC704780B483B000AF786000BF54
:1049C0000C37BD4680BC704780B483B000AF7860C0
:1049D00000BF0C37BD4680BC7047000080B584B076
:1049E00000AF78607B6893F83D30FB737B68DB6ACF
:1049F000BB60BB68082B02D0BB68202B29D1FB7B96
:104A0000282B26D17B682E4ADA627B681B685A689D
:104A10007B681B6822F4E0625A607B681B686FF455
:104A200080625A617B681B681A687B681B6822F485
:104A300080621A607B6800221A637B68202283F8F8
:104A40003D207B68002283F83E207868FFF7AAFFAC
:104A500031E0FB7B212B29D17B68194ADA627B6824
:104A600021221A637B68202283F83D207B68002284
:104A700083F83E207B681B685A687B681B6822F4B9
:104A8000E0625A607B681B686FF480625A617B68E1
:104A90001B681A687B681B6822F480621A60786859
:104AA000FFF73FFC7868FFF774FF04E07B681B6842
:104AB0006FF480625A6100BF1037BD4680BD00BFF1
:104AC0000000FFFF80B584B000AF78607B6893F88A
:104AD0003D30FB737B6893F83E30BB73BB7B102B80
:104AE00002D0BB7B402B0AD1FB7B222B07D17B68FA
:104AF0001B681A687B681B6822F400621A60FB7BE3
:104B000003F02803282B07D17B6800221A637B68F7
:104B1000282283F83D2015E07B681B685B6803F45E
:104B20000063B3F5006F0AD0FB7B602B07D07B6876
:104B3000202283F83D207B68002283F83E207B689A
:104B400000221A637B681B685B6803F40063B3F59B
:104B5000006F62D17B681B685A687B681B6822F40F
:104B600000625A607B685B6B93F82130DBB2012BEB
:104B700020D07B685B6B6A4A5A637B685B6B184624
:104B8000FEF78CFF0346002B00F089807B681B68D2
:104B90001A687B681B6822F001021A607B68202279
:104BA00083F83D207B685B6B5B6B7A68526B1046C9
:104BB000984774E07B689B6B594A5A637B689B6B90
:104BC0001846FEF76BFF0346002B68D07B681B6816
:104BD0005B6903F04003402B0BD17B681B681A69AB
:104BE0007B685B6AD2B21A707B685B6A5A1C7B680E
:104BF0005A627B681B681A687B681B6822F0010296
:104C00001A607B68202283F83D207B689B6B5B6B7E
:104C10007A68926B1046984741E07B6893F83D3084
:104C2000DBB2602B25D17B68202283F83D207B6896
:104C300000221A647B681B685B6903F04003402B09
:104C40000BD17B681B681A697B685B6AD2B21A70E9
:104C50007B685B6A5A1C7B685A627B681B681A68AF
:104C60007B681B6822F001021A607868FFF7ACFECF
:104C700015E07B681B685B6903F04003402B0BD198
:104C80007B681B681A697B685B6AD2B21A707B68A2
:104C90005B6A5A1C7B685A627868FFF78CFE7B68F7
:104CA0001B6CBB60BB6803F00103002B0ED1BB681B
:104CB00003F00203002B09D1BB6803F00403002BAF
:104CC00004D1BB6803F00803002B07D07B681B6886
:104CD0005A687B681B6822F4E0625A607B6893F82C
:104CE0003D30FB737B681B6C03F00403042B13D172
:104CF000FB7B282B10D17B680A4ADA627B68002292
:104D00001A637B68202283F83D207B68002283F8A9
:104D10003E207868FFF746FE00BF1037BD4680BDD5
:104D2000F94E00080000FFFF80B588B002AFF860C0
:104D3000084611461A4603467B810B463B811346C3
:104D4000FB80FB681B681A68FB681B6842F4806282
:104D50001A60FB681B681A68FB681B6842F4807263
:104D60001A607B6A00933B6A00224FF00111F868D9
:104D700000F06AF90346002B0DD0FB681B681B6826
:104D800003F48073B3F5807F03D1FB684FF40072A6
:104D90001A640323AAE07B89DBB21A46FB681B680E
:104DA00002F0FE021A617B6A3A6A5249F86800F022
:104DB000C5F90346002B01D0012397E000237B6156
:104DC000FB681B685B697B61FB681B689B697B6197
:104DD0007B697A6A396AF86800F050FA0346002B5A
:104DE0000DD0FB681B6C042B07D1FB681B681A688D
:104DF000FB681B6842F400721A60012376E0FB88AE
:104E0000012B05D13B89DAB2FB681B681A6121E0EE
:104E10003B891B0A9BB2DAB2FB681B681A617A6A8B
:104E2000396AF86800F02AFA0346002B0DD0FB68B7
:104E30001B6C042B07D1FB681B681A68FB681B6896
:104E400042F400721A60012350E03B89DAB2FB6839
:104E50001B681A617A6A396AF86800F00FFA03462B
:104E6000002B0DD0FB681B6C042B07D1FB681B6863
:104E70001A68FB681B6842F400721A60012335E06F
:104E8000FB681B681A68FB681B6842F480721A6032
:104E90007B6A00933B6A00224FF00111F86800F032
:104EA000D3F80346002B0DD0FB681B681B6803F486
:104EB0008073B3F5807F03D1FB684FF400721A64EE
:104EC000032313E07B89DBB243F00103DAB2FB6812
:104ED0001B681A617B6A3A6A0649F86800F02EF985
:104EE0000346002B01D0012300E0002318461837A9
:104EF000BD4680BD0200010080B586B000AF78607D
:104F00000023FB607B685B6A7B617B6993F83D30C3
:104F1000FB744B4B1B68DB084A4AA2FB03231A0AAB
:104F200013469B001344DA00D31AFB60FB68002B86
:104F300006D17B691B6C43F020027B691A640AE08E
:104F4000FB68013BFB607B691B681B6803F4007313
:104F5000B3F5007FEAD07B695B6B002B03D07B69E4
:104F60005B6B00229A627B699B6B002B03D07B6991
:104F70009B6B00229A627B691B681A687B691B68BD
:104F800022F480621A607B6900225A857B695B6B20
:104F9000002B03D07B695B6B00225A637B699B6BA0
:104FA000002B03D07B699B6B00225A637B691B68D3
:104FB0001A687B691B6822F001021A607B6993F80A
:104FC0003D30DBB2602B0ED17B69202283F83D207F
:104FD0007B69002283F83E207B6900221A6478698D
:104FE000FFF7F2FC27E0FB7C03F02803282B17D106
:104FF0007B691B681A687B691B6842F001021A60B2
:105000007B691B681A687B691B6842F480621A60BE
:105010007B6900221A637B69282283F83D2007E020
:105020007B69202283F83D207B69002283F83E20A3
:105030007869FFF7C0FC00BF1837BD4680BD00BFD0
:105040002800002089B5F81480B584B000AFF8605E
:10505000B9603B601346FB7148E03B68B3F1FF3F2A
:1050600044D0FEF773FB0246BB69D31A3A689A42F2
:1050700002D33B68002B39D1BB681B0CDBB2012B80
:105080000DD1FB681B685B69DA43BB6813409BB2B8
:10509000002B0CBF01230023DBB21A460CE0FB6897
:1050A0001B689B69DA43BB6813409BB2002B0CBFA3
:1050B00001230023DBB21A46FB799A4216D1FB6822
:1050C00000221A63FB68202283F83D20FB6800223F
:1050D00083F83E20FB681B6C43F02002FB681A64D7
:1050E000FB68002283F83C20012323E0BB681B0CF3
:1050F000DBB2012B0DD1FB681B685B69DA43BB682F
:1051000013409BB2002B0CBF01230023DBB21A46D5
:105110000CE0FB681B689B69DA43BB6813409BB2D9
:10512000002B0CBF01230023DBB21A46FB799A4205
:1051300093D0002318461037BD4680BD80B584B09B
:1051400000AFF860B9607A603B6071E0FB681B6893
:105150005B6903F48063B3F5806F23D1FB681B6840
:105160001A68FB681B6842F400721A60FB681B68CF
:105170006FF480625A61FB6800221A63FB68202288
:1051800083F83D20FB68002283F83E20FB681B6CFF
:1051900043F00402FB681A64FB68002283F83C2099
:1051A000012367E07B68B3F1FF3F41D0FEF7CEFA01
:1051B00002463B68D31A7A689A4202D37B68002B76
:1051C00036D1BB681B0CDBB2012B0CD1FB681B6812
:1051D0005B69DA43BB6813409BB2002B14BF012309
:1051E0000023DBB20BE0FB681B689B69DA43BB68FA
:1051F00013409BB2002B14BF01230023DBB2002B12
:1052000016D0FB6800221A63FB68202283F83D2039
:10521000FB68002283F83E20FB681B6C43F02002F1
:10522000FB681A64FB68002283F83C20012321E01C
:10523000BB681B0CDBB2012B0CD1FB681B685B69E4
:10524000DA43BB6813409BB2002B14BF0123002339
:10525000DBB20BE0FB681B689B69DA43BB68134059
:105260009BB2002B14BF01230023DBB2002B7FF481
:105270006DAF002318461037BD4680BD80B584B0A1
:1052800000AFF860B9607A6034E0F86800F09BF82D
:105290000346002B01D0012334E0BB68B3F1FF3F8C
:1052A00028D0FEF753FA02467B68D31ABA689A42AE
:1052B00002D3BB68002B1DD1FB681B685B6903F040
:1052C0008003802B16D0FB6800221A63FB68202223
:1052D00083F83D20FB68002283F83E20FB681B6CAE
:1052E00043F02002FB681A64FB68002283F83C202C
:1052F000012307E0FB681B685B6903F08003802BD8
:10530000C3D1002318461037BD4680BD80B584B098
:1053100000AFF860B9607A6049E0FB681B685B69C0
:1053200003F01003102B19D1FB681B686FF01002FB
:105330005A61FB6800221A63FB68202283F83D2033
:10534000FB68002283F83E20FB681A6CFB681A6435
:10535000FB68002283F83C20012330E0FEF7F6F9D9
:1053600002467B68D31ABA689A4202D3BB68002B04
:105370001DD1FB681B685B6903F04003402B16D00E
:10538000FB6800221A63FB68202283F83D20FB683B
:10539000002283F83E20FB681B6C43F02002FB6870
:1053A0001A64FB68002283F83C20012307E0FB68B5
:1053B0001B685B6903F04003402BAED10023184605
:1053C0001037BD4680BD80B483B000AF78607B6885
:1053D0001B685B6903F48063B3F5806F1BD17B6846
:1053E0001B686FF480625A617B6800221A637B68D5
:1053F000202283F83D207B68002283F83E207B68D2
:105400001B6C43F004027B681A647B68002283F8FB
:105410003C20012300E0002318460C37BD4680BC29
:10542000704780B584B000AF78607B68002B01D1F5
:10543000012336E07B681B684CF6CC421A607B681F
:105440001B6845F255521A607B681B687A6852687F
:105450005A607B681B687A6892689A60FEF776F9F2
:10546000F86011E0FEF772F90246FB68D31A41F2C8
:105470003C32934208D97B681B68DB6803F0030366
:10548000002B01D003230CE07B681B68DB6803F072
:105490000303002BE6D17B681B684AF6AA221A6038
:1054A000002318461037BD4680BD80B483B000AFDE
:1054B00078607B681B684AF6AA221A6000231846A7
:1054C0000C37BD4680BC704780B586B000AF7860B1
:1054D0007B68002B01D1012372E27B681B6803F01B
:1054E0000103002B00F08780924B5B6803F00C03F4
:1054F000042B0CD08F4B5B6803F00C03082B12D1EC
:105500008C4B5B6803F48033B3F5803F0BD1894B40
:105510001B6803F40033002B6CD07B685B68002BA6
:1055200068D101234CE27B685B68B3F5803F06D10C
:10553000804B1B687F4A43F4803313602EE07B6806
:105540005B68002B0CD17B4B1B687A4A23F48033B9
:105550001360784B1B68774A23F4802313601DE0A7
:105560007B685B68B3F5A02F0CD1724B1B68714A46
:1055700043F4802313606F4B1B686E4A43F48033FF
:1055800013600BE06B4B1B686A4A23F48033136093
:10559000684B1B68674A23F4802313607B685B6851
:1055A000002B13D0FEF7D2F8386108E0FEF7CEF8F2
:1055B00002463B69D31A642B01D9032300E25D4BF9
:1055C0001B6803F40033002BF0D014E0FEF7BEF8A4
:1055D000386108E0FEF7BAF802463B69D31A642B3B
:1055E00001D90323ECE1534B1B6803F40033002B78
:1055F000F0D100E000BF7B681B6803F00203002BC2
:1056000063D04C4B5B6803F00C03002B0BD0494B71
:105610005B6803F00C03082B1CD1464B5B6803F45A
:105620008033002B16D1434B1B6803F00203002B81
:1056300005D07B681B69012B01D00123C0E13D4BE4
:105640001B6823F0F8027B685B69DB003949134370
:105650000B603AE07B681B69002B20D0364B01229F
:105660001A60FEF773F8386108E0FEF76FF802463B
:105670003B69D31A022B01D90323A1E12D4B1B68EF
:1056800003F00203002BF0D02A4B1B6823F0F80232
:105690007B685B69DB00274913430B6015E0264BF1
:1056A00000221A60FEF752F8386108E0FEF74EF863
:1056B00002463B69D31A022B01D9032380E11D4B1B
:1056C0001B6803F00203002BF0D17B681B6803F01A
:1056D0000803002B3AD07B689B69002B19D0174B2D
:1056E00001221A60FEF732F8386108E0FEF72EF862
:1056F00002463B69D31A022B01D9032360E10D4B0B
:105700005B6A03F00203002BF0D0012000F0CEFA18
:105710001CE00A4B00221A60FEF718F838610FE00F
:10572000FEF714F802463B69D31A022B08D903236B
:1057300046E100BF001002400000424280044242A5
:10574000924B5B6A03F00203002BE9D17B681B6874
:1057500003F00403002B00F0A6800023FB758B4BA5
:10576000DB6903F08053002B0DD1884BDB69874A3E
:1057700043F08053D361854BDB6903F08053BB60FA
:10578000BB680123FB75824B1B6803F48073002BFD
:1057900018D17F4B1B687E4A43F480731360FDF77A
:1057A000D5FF386108E0FDF7D1FF02463B69D31A07
:1057B000642B01D9032303E1754B1B6803F4807349
:1057C000002BF0D07B68DB68012B06D16F4B1B6A86
:1057D0006E4A43F0010313622DE07B68DB68002B07
:1057E0000CD16A4B1B6A694A23F001031362674BB1
:1057F0001B6A664A23F0040313621CE07B68DB68C3
:10580000052B0CD1614B1B6A604A43F00403136201
:105810005E4B1B6A5D4A43F0010313620BE05B4B76
:105820001B6A5A4A23F001031362584B1B6A574AFA
:1058300023F0040313627B68DB68002B15D0FDF7AF
:1058400085FF38610AE0FDF781FF02463B69D31A04
:1058500041F28832934201D90323B1E04B4B1B6ADA
:1058600003F00203002BEED014E0FDF76FFF386168
:105870000AE0FDF76BFF02463B69D31A41F288321A
:10588000934201D903239BE0404B1B6A03F00203C0
:10589000002BEED1FB7D012B05D13C4BDB693B4A54
:1058A00023F08053D3617B68DB69002B00F0878095
:1058B000364B5B6803F00C03082B61D07B68DB6917
:1058C000022B46D1334B00221A60FDF73FFF3861AF
:1058D00008E0FDF73BFF02463B69D31A022B01D9D2
:1058E00003236DE0294B1B6803F00073002BF0D1FC
:1058F0007B681B6AB3F5803F08D1244B5B6823F4B7
:1059000000327B689B68214913434B601F4B5B68E7
:1059100023F474127B68196A7B685B6A0B431B492A
:1059200013434B601B4B01221A60FDF70FFF3861D8
:1059300008E0FDF70BFF02463B69D31A022B01D9A1
:1059400003233DE0114B1B6803F00073002BF0D0E4
:1059500035E0104B00221A60FDF7F8FE386108E0D0
:10596000FDF7F4FE02463B69D31A022B01D903234B
:1059700026E0064B1B6803F00073002BF0D11EE0FD
:105980007B68DB69012B07D1012319E0001002407D
:1059900000700040600042420B4B5B68FB60FB689C
:1059A00003F480327B681B6A9A4206D1FB6803F4D9
:1059B00070127B685B6A9A4201D0012300E00023E9
:1059C00018461837BD4680BD0010024080B584B02F
:1059D00000AF786039607B68002B01D10123D0E0F3
:1059E0006A4B1B6803F007033A689A4210D9674B69
:1059F0001B6823F0070265493B6813430B60634B48
:105A00001B6803F007033A689A4201D00123B8E00B
:105A10007B681B6803F00203002B20D07B681B68A7
:105A200003F00403002B05D0594B5B68584A43F43C
:105A3000E06353607B681B6803F00803002B05D00C
:105A4000534B5B68524A43F460535360504B5B685E
:105A500023F0F0027B689B684D4913434B607B68E1
:105A60001B6803F00103002B40D07B685B68012BAF
:105A700007D1474B1B6803F40033002B15D10123DA
:105A80007FE07B685B68022B07D1414B1B6803F00A
:105A90000073002B09D1012373E03D4B1B6803F019
:105AA0000203002B01D101236BE0394B5B6823F02B
:105AB00003027B685B68364913434B60FDF746FE83
:105AC000F8600AE0FDF742FE0246FB68D31A41F295
:105AD0008832934201D9032353E02D4B5B6803F0D6
